0101010010ATIVIDADE EDUCATIVA / ORIENTAÇÃO EM GRUPO NA ATENÇÃO BÁSICA                                                                                                                                                                                               1N9999999900009999999900000000000000000000000000000001      9999201809
0101010028ATIVIDADE EDUCATIVA / ORIENTAÇÃO EM GRUPO NA ATENÇÃO ESPECIALIZADA                                                                                                                                                                                        2I9999999900000084157100000000000000000270000000000006      9999201809
0101010036PRÁTICA CORPORAL / ATIVIDADE FÍSICA EM GRUPO                                                                                                                                                                                                              1I9999999900000072157100000000000000000000000000000001      9999201809
0101020015AÇÃO COLETIVA DE APLICAÇÃO TÓPICA DE FLÚOR GEL                                                                                                                                                                                                            1I9999999900000048157100000000000000000000000000000001      9999201809
0101020023AÇÃO COLETIVA DE BOCHECHO FLUORADO                                                                                                                                                                                                                        1I9999999900000084157100000000000000000000000000000001      9999201809
0101020031AÇÃO COLETIVA DE ESCOVAÇÃO DENTAL SUPERVISIONADA                                                                                                                                                                                                          1I9999999900000036157100000000000000000000000000000001      9999201809
0101020040AÇÃO COLETIVA DE EXAME BUCAL COM FINALIDADE EPIDEMIOLÓGICA                                                                                                                                                                                                1I9999999900000000157100000000000000000000000000000001      9999201809
0101020058APLICAÇÃO DE CARIOSTÁTICO (POR DENTE)                                                                                                                                                                                                                     1I9999999900000000157100000000000000000000000000000001      9999201809
0101020066APLICAÇÃO DE SELANTE (POR DENTE)                                                                                                                                                                                                                          1I9999999900000000157100000000000000000000000000000001      9999201809
0101020074APLICAÇÃO TÓPICA DE FLÚOR (INDIVIDUAL POR SESSÃO)                                                                                                                                                                                                         1I9999999900000000157100000000000000000000000000000001      9999201809
0101020082EVIDENCIAÇÃO DE PLACA BACTERIANA                                                                                                                                                                                                                          1I9999999900000000157100000000000000000000000000000001      9999201809
0101020090SELAMENTO PROVISÓRIO DE CAVIDADE DENTÁRIA                                                                                                                                                                                                                 1I9999999900000000157100000000000000000000000000000001      9999201809
0101030010VISITA DOMICILIAR POR PROFISSIONAL DE NÍVEL MÉDIO                                                                                                                                                                                                         1I9999999900000000157100000000000000000000000000000001      9999201809
0101030029VISITA DOMICILIAR/INSTITUCIONAL POR PROFISSIONAL DE NÍVEL SUPERIOR                                                                                                                                                                                        1I9999999900000000157100000000000000000000000000000001      9999201809
0101040024AVALIAÇÃO ANTROPOMÉTRICA                                                                                                                                                                                                                                  1I9999999900000000157100000000000000000000000000000001      9999201809
0101040032COLETA EXTERNA DE LEITE MATERNO (POR DOADORA)                                                                                                                                                                                                             2F9999999900000144059900000000000000000300000000000006      9999201809
0101040040PASTEURIZAÇÃO DO LEITE HUMANO (CADA 5 LITROS)                                                                                                                                                                                                             2N9999999900009999999900000000000000001106000000000006      9999201809
0101040059ADMINISTRAÇÃO DE VITAMINA A                                                                                                                                                                                                                               1I9999999900000006059900000000000000000000000000000001      9999201809
0101040067APLICAÇÃO DE SUPLEMENTOS DE MICRONUTRIENTES                                                                                                                                                                                                               1I9999999900000006059900000000000000000000000000000001      9999201809
0101050011PRATICAS CORPORAIS EM MEDICINA TRADICIONAL CHINESA                                                                                                                                                                                                        1I9999999900000072157100000000000000000000000000000001      9999201809
0101050020TERAPIA COMUNITÁRIA                                                                                                                                                                                                                                       1I9999999900000000157100000000000000000000000000000001      9999201809
0101050038DANÇA CIRCULAR/BIODANÇA                                                                                                                                                                                                                                   1I9999999900000000157100000000000000000000000000000001      9999201809
0101050046YOGA                                                                                                                                                                                                                                                      1I9999999900000000157100000000000000000000000000000001      9999201809
0101050054OFICINA DE MASSAGEM/ AUTO-MASSAGEM                                                                                                                                                                                                                        1I9999999900000000157100000000000000000000000000000001      9999201809
0101050062SESSÃO DE ARTETERAPIA                                                                                                                                                                                                                                     1I9999999900000000157100000000000000000000000000000001      9999201809
0101050070SESSÃO DE MEDITAÇÃO                                                                                                                                                                                                                                       1I9999999900000000157100000000000000000000000000000001      9999201809
0101050089SESSÃO DE MUSICOTERAPIA                                                                                                                                                                                                                                   1I9999999900000000157100000000000000000000000000000001      9999201809
0102010056ATIVIDADES EDUCATIVAS PARA O SETOR REGULADO                                                                                                                                                                                                               0N9999999900009999999900000000000000000000000000000007      9999201809
0102010064ANÁLISE DE PROJETOS BÁSICOS DE ARQUITETURA                                                                                                                                                                                                                0N9999999900009999999900000000000000000000000000000007      9999201809
0102010072CADASTRO DE ESTABELECIMENTOS SUJEITOS À VIGILÂNCIA SANITÁRIA                                                                                                                                                                                              0N9999999900009999999900000000000000000000000000000007      9999201809
0102010145INSPEÇÃO SANITÁRIA DE HOSPITAIS                                                                                                                                                                                                                           0N9999999900009999999900000000000000000000000000000007      9999201809
0102010153INVESTIGAÇÃO DE EVENTOS ADVERSOS E/OU QUEIXAS TÉCNICAS                                                                                                                                                                                                    0N9999999900009999999900000000000000000000000000000007      9999201809
0102010161EXCLUSÃO DE CADASTRO DE ESTABELECIMENTOS SUJEITOS À VIGILÂNCIA SANITÁRIA COM ATIVIDADES ENCERRADAS.                                                                                                                                                       0N9999999900009999999900000000000000000000000000000007      9999201809
0102010170INSPEÇÃO DOS ESTABELECIMENTOS SUJEITOS À VIGILÂNCIA SANITÁRIA                                                                                                                                                                                             0N9999999900009999999900000000000000000000000000000007      9999201809
0102010188LICENCIAMENTO DOS ESTABELECIMENTOS SUJEITOS À VIGILÂNCIA SANITÁRIA                                                                                                                                                                                        0N9999999900009999999900000000000000000000000000000007      9999201809
0102010196APROVAÇÃO DE PROJETOS BÁSICOS DE ARQUITETURA                                                                                                                                                                                                              0N9999999900009999999900000000000000000000000000000007      9999201809
0102010200INVESTIGAÇÃO DE SURTOS DE DOENÇAS TRANSMITIDAS POR ALIMENTOS                                                                                                                                                                                              0N9999999900009999999900000000000000000000000000000007      9999201809
0102010218INVESTIGAÇÃO DE SURTOS DE INFECÇÃO EM SERVIÇOS DE SAÚDE                                                                                                                                                                                                   0N9999999900009999999900000000000000000000000000000007      9999201809
0102010226ATIVIDADE EDUCATIVA PARA A POPULAÇÃO                                                                                                                                                                                                                      0N9999999900009999999900000000000000000000000000000007      9999201809
0102010234RECEBIMENTO DE DENÚNCIAS/RECLAMAÇÕES                                                                                                                                                                                                                      0N9999999900009999999900000000000000000000000000000007      9999201809
0102010242ATENDIMENTO À DENÚNCIAS/RECLAMAÇÕES                                                                                                                                                                                                                       0N9999999900009999999900000000000000000000000000000007      9999201809
0102010250CADASTRO DE HOSPITAIS                                                                                                                                                                                                                                     0N9999999900009999999900000000000000000000000000000007      9999201809
0102010269LICENCIAMENTO SANITÁRIO DE HOSPITAIS                                                                                                                                                                                                                      0N9999999900009999999900000000000000000000000000000007      9999201809
0102010277CADASTRO DE INSTITUIÇÕES DE LONGA PERMANÊNCIA PARA IDOSOS                                                                                                                                                                                                 0N9999999900009999999900000000000000000000000000000007      9999201809
0102010285INSPEÇÃO SANITÁRIA DE INSTITUIÇÕES DE LONGA PERMANÊNCIA PARA IDOSOS                                                                                                                                                                                       0N9999999900009999999900000000000000000000000000000007      9999201809
0102010293LICENCIAMENTO SANITÁRIO DE INSTITUIÇÕES DE LONGA PERMANÊNCIA PARA IDOSOS                                                                                                                                                                                  0N9999999900009999999900000000000000000000000000000007      9999201809
0102010307CADASTRO DE INDÚSTRIAS DE MEDICAMENTOS                                                                                                                                                                                                                    0N9999999900009999999900000000000000000000000000000007      9999201809
0102010315INSPEÇÃO SANITÁRIA DE INDÚSTRIA DE MEDICAMENTOS                                                                                                                                                                                                           0N9999999900009999999900000000000000000000000000000007      9999201809
0102010323LICENCIAMENTO SANITÁRIO DE INDÚSTRIAS DE MEDICAMENTOS                                                                                                                                                                                                     0N9999999900009999999900000000000000000000000000000007      9999201809
0102010331CADASTRO DE SERVIÇOS DE DIAGNÓSTICO E TRATAMENTO DO CÂNCER DE COLO DE ÚTERO E MAMA                                                                                                                                                                        0N9999999900009999999900000000000000000000000000000007      9999201809
0102010340INSPEÇÃO SANITÁRIA DE SERVIÇOS DE DIAGNÓSTICO E TRATAMENTO DO CÂNCER DE COLO DE ÚTERO E MAMA.                                                                                                                                                             0N9999999900009999999900000000000000000000000000000007      9999201809
0102010358LICENCIAMENTO SANITÁRIO DE SERVIÇOS DE DIAGNÓSTICO E TRATAMENTO DO CÂNCER DE COLO DE ÚTERO E MAMA                                                                                                                                                         0N9999999900009999999900000000000000000000000000000007      9999201809
0102010366CADASTRO DE SERVIÇOS HOSPITALARES DE ATENÇÃO AO PARTO E À CRIANÇA                                                                                                                                                                                         0N9999999900009999999900000000000000000000000000000007      9999201809
0102010374INSPEÇÃO SANITÁRIA DE SERVIÇOS HOSPITALARES DE ATENÇÃO AO PARTO E À CRIANÇA                                                                                                                                                                               0N9999999900009999999900000000000000000000000000000007      9999201809
0102010382LICENCIAMENTO SANITÁRIO DE SERVIÇOS HOSPITALARES DE ATENÇÃO AO PARTO E À CRIANÇA                                                                                                                                                                          0N9999999900009999999900000000000000000000000000000007      9999201809
0102010390CADASTRO DE SERVIÇOS DE HEMOTERAPIA                                                                                                                                                                                                                       0N9999999900009999999900000000000000000000000000000007      9999201809
0102010404INSPEÇÃO SANITÁRIA DE SERVIÇOS DE HEMOTERAPIA                                                                                                                                                                                                             0N9999999900009999999900000000000000000000000000000007      9999201809
0102010412LICENCIAMENTO SANITÁRIO DE SERVIÇOS DE HEMOTERAPIA                                                                                                                                                                                                        0N9999999900009999999900000000000000000000000000000007      9999201809
0102010420CADASTRO DE SERVIÇOS DE TERAPIA RENAL SUBSTITUTIVA                                                                                                                                                                                                        0N9999999900009999999900000000000000000000000000000007      9999201809
0102010439INSPEÇÃO SANITÁRIA DE SERVIÇOS DE TERAPIA RENAL SUBSTITUTIVA                                                                                                                                                                                              0N9999999900009999999900000000000000000000000000000007      9999201809
0102010447LICENCIAMENTO SANITÁRIO DE SERVIÇOS DE TERAPIA RENAL SUBSTITUTIVA                                                                                                                                                                                         0N9999999900009999999900000000000000000000000000000007      9999201809
0102010455CADASTRO DE SERVIÇOS DE ALIMENTAÇÃO                                                                                                                                                                                                                       0N9999999900009999999900000000000000000000000000000007      9999201809
0102010463INSPEÇÃO SANITÁRIA DE SERVIÇOS DE ALIMENTAÇÃO                                                                                                                                                                                                             0N9999999900009999999900000000000000000000000000000007      9999201809
0102010471LICENCIAMENTO SANITÁRIO DE SERVIÇOS DE ALIMENTAÇÃO                                                                                                                                                                                                        0N9999999900009999999900000000000000000000000000000007      9999201809
0102010480FISCALIZAÇÃO DO USO DE PRODUTOS FUMÍGENOS DERIVADOS DO TABACO EM AMBIENTES COLETIVOS FECHADOS, PÚBLICOS OU PRIVADOS                                                                                                                                       0N9999999900009999999900000000000000000000000000000007      9999201809
0102010498LAUDO DE ANÁLISE LABORATORIAL DO PROGRAMA DE MONITORAMENTO DE ALIMENTOS RECEBIDOS PELA VIGILÂNCIA SANITÁRIA                                                                                                                                               0N9999999900009999999900000000000000000000000000000007      9999201809
0102010501ATIVIDADES EDUCATIVAS SOBRE A TEMÁTICA DA DENGUE,REALIZADAS PARA A POPULAÇÃO                                                                                                                                                                              0N9999999900009999999900000000000000000000000000000007      9999201809
0102010510ATIVIDADES EDUCATIVAS,COM RELAÇÃO AO CONSUMO DE SÓDIO, AÇÚCAR E GORDURAS, REALIZADAS PARA O SETOR REGULADO E A POPULAÇÃO                                                                                                                                  0N9999999900009999999900000000000000000000000000000007      9999201809
0102010528INSTAURAÇÃO DE PROCESSO ADMINISTRATIVO SANITÁRIO                                                                                                                                                                                                          0N9999999900009999999900000000000000000000000000000007      9999201809
0102010536CONCLUSÃO DE PROCESSO ADMINISTRATIVO SANITÁRIO                                                                                                                                                                                                            0N9999999900009999999900000000000000000000000000000007      9999201809
0102010544CADASTRO DE INDÚSTRIAS DE INSUMOS FARMACÊUTICOS                                                                                                                                                                                                           0N9999999900009999999900000000000000000000000000000007      9999201809
0102010552CADASTRO DE INDÚSTRIAS DE PRODUTOS PARA SAÚDE                                                                                                                                                                                                             0N9999999900009999999900000000000000000000000000000007      9999201809
0102010560INSPEÇÃO SANITÁRIA DE INDÚSTRIAS DE INSUMOS FARMACÊUTICOS                                                                                                                                                                                                 0N9999999900009999999900000000000000000000000000000007      9999201809
0102010579INSPEÇÃO SANITÁRIA DE INDÚSTRIAS DE PRODUTOS PARA SAÚDE                                                                                                                                                                                                   0N9999999900009999999900000000000000000000000000000007      9999201809
0102010587IMPLEMENTAÇÃO DE PROCEDIMENTOS (POPs) HARMONIZADOS EM NÍVEL TRIPARTITE RELACIONADOS À INSPEÇÃO EM ESTABELECIMENTOS FABRICANTES DE MEDICAMENTOS                                                                                                            0N9999999900009999999900000000000000000000000000000007      9999201809
0102010595IMPLEMENTAÇÃO DE PROCEDIMENTOS (POPs) HARMONIZADOS EM NÍVEL TRIPARTITE RELACIONADOS À INSPEÇÃO EM ESTABELECIMENTOS FABRICANTES DE INSUMOS FARMACÊUTICOS                                                                                                   0N9999999900009999999900000000000000000000000000000007      9999201809
0102010609IMPLEMENTAÇÃO DE PROCEDIMENTOS (POPs) HARMONIZADOS EM NÍVEL TRIPARTITE RELACIONADOS A INSPEÇÃO EM ESTABELECIMENTOS FABRICANTES DE PRODUTOS PARA SAÚDE                                                                                                     0N9999999900009999999900000000000000000000000000000007      9999201809
0102010617ENVIO DE RELATÓRIOS DE INSPEÇÃO DE ESTABELECIMENTOS FABRICANTES DE MEDICAMENTOS À ANVISA                                                                                                                                                                  0N9999999900009999999900000000000000000000000000000007      9999201809
0102010625ENVIO DE RELATÓRIOS DE INSPEÇÃO DE ESTABELECIMENTOS FABRICANTES DE INSUMOS FARMACÊUTICOS À ANVISA                                                                                                                                                         0N9999999900009999999900000000000000000000000000000007      9999201809
0102010633ENVIO DE RELATÓRIOS DE INSPEÇÃO DE ESTABELECIMENTOS FABRICANTES DE PRODUTOS PARA SAÚDE À ANVISA                                                                                                                                                           0N9999999900009999999900000000000000000000000000000007      9999201809
0102010641AUDITORIAS INTERNAS REALIZADAS NO DEPARTAMENTO RESPONSÁVEL PELAS ATIVIDADES DE INSPEÇÃO DE ESTABELECIMENTOS FABRICANTES DE MEDICAMENTOS                                                                                                                   0N9999999900009999999900000000000000000000000000000007      9999201809
0102010650AUDITORIAS INTERNAS REALIZADAS NO DEPARTAMENTO RESPONSÁVEL PELAS ATIVIDADES DE INSPEÇÃO DE ESTABELECIMENTOS FABRICANTES DE INSUMOS FARMACÊUTICOS                                                                                                          0N9999999900009999999900000000000000000000000000000007      9999201809
0102010668AUDITORIAS INTERNAS REALIZADAS NO DEPARTAMENTO RESPONSÁVEL PELAS ATIVIDADES DE INSPEÇÃO DE ESTABELECIMENTOS FABRICANTES DE PRODUTOS PARA SAÚDE                                                                                                            0N9999999900009999999900000000000000000000000000000007      9999201809
0102020019VIGILÂNCIA DA SITUAÇÃO DE SAÚDE DOS TRABALHADORES                                                                                                                                                                                                         2N9999999900009999999900000000000000000000000000000005      9999201809
0102020027ATIVIDADE EDUCATIVA EM SAÚDE DO TRABALHADOR                                                                                                                                                                                                               2I9999999900000048157100000000000000000000000000000005      9999201809
0102020035INSPEÇÃO SANITÁRIA EM SAÚDE DO TRABALHADOR                                                                                                                                                                                                                2N9999999900009999999900000000000000000000000000000005      9999201809
0201010011AMNIOCENTESE                                                                                                                                                                                                                                              2F0001999900000108073100000002200000000220000000000006      9999201809
0201010020BIOPSIA / PUNCAO DE TUMOR SUPERFICIAL DA PELE                                                                                                                                                                                                             2I9999999900000000157100000000000000001410000000000006      9999201809
0201010038BIOPSIA CIRURGICA DE TIREOIDE                                                                                                                                                                                                                             2I0001000200880000157100000123700000000000000000768606      9999201809
0201010046BIOPSIA DE ANUS E CANAL ANAL                                                                                                                                                                                                                              2I0001999900000000157100000018460000001846000000000006      9999201809
0201010054BIOPSIA DE BACO POR PUNCAO / ASPIRACAO                                                                                                                                                                                                                    2I9999999900000000157100000000000000000000000000000006      9999201809
0201010062BIOPSIA DE BEXIGA                                                                                                                                                                                                                                         2I0001999900000000157100000041680000004168000000000006      9999201809
0201010070BIOPSIA DE BOLSA ESCROTAL                                                                                                                                                                                                                                 2M0001999900000000157100000018330000001833000000000006      9999201809
0201010089BIOPSIA DE CONDUTO AUDITIVO EXTERNO                                                                                                                                                                                                                       2I0002999900000000157100000000000000001906000000000006      9999201809
0201010097BIOPSIA DE CONJUNTIVA                                                                                                                                                                                                                                     2I0002999900000000157100000031100000003110000000000006      9999201809
0201010100BIOPSIA DE CORDAO ESPERMATICO (UNILATERAL)                                                                                                                                                                                                                2M9999999900000000157100000046190000004619000000000006      9999201809
0201010119BIOPSIA DE CORNEA                                                                                                                                                                                                                                         2I0002999900000000157100000068620000006862000000000006      9999201809
0201010127BIOPSIA DE CORPO VERTEBRAL A CEU ABERTO                                                                                                                                                                                                                   3I0001000200880000157100000585660000000000000002268006      9999201809
0201010135BIOPSIA DE CORPO VERTEBRAL LAMINA E PEDICULO VERTEBRAL (POR DISPOSITIVO GUIADO)                                                                                                                                                                           3I0001000200880000157100000149010000000000000001296006      9999201809
0201010143BIOPSIA DE ENDOCARDIO / MIOCARDIO                                                                                                                                                                                                                         3I0001000100880000157100000577280000000000000001319806      9999201809
0201010151BIOPSIA DE ENDOMETRIO                                                                                                                                                                                                                                     2F0001999900000108157100000000000000001833000000000006      9999201809
0201010160BIOPSIA DE ENDOMETRIO POR ASPIRACAO MANUAL INTRA-UTERINA                                                                                                                                                                                                  2F0001000100480108157100000068150000008569000000175406      9999201809
0201010178BIOPSIA DE EPIDIDIMO                                                                                                                                                                                                                                      2M9999999900000120157100000046190000004619000000000006      9999201809
0201010186BIOPSIA DE ESCLERA                                                                                                                                                                                                                                        2I0002999900000000157100000048730000006862000000198906      9999201809
0201010194BIOPSIA DE FARINGE/LARINGE                                                                                                                                                                                                                                2I9999999900000000157100000019060000001906000000000006      9999201809
0201010208BIOPSIA DE FIGADO EM CUNHA / FRAGMENTO                                                                                                                                                                                                                    2I0001000200880000157100000114290000000000000000833006      9999201809
0201010216BIOPSIA DE FIGADO POR PUNCAO                                                                                                                                                                                                                              2I9999999900000000157100000071150000007115000000000006      9999201809
0201010224BIOPSIA DE GANGLIO LINFATICO                                                                                                                                                                                                                              2I9999999900000000157100000046190000004619000000000006      9999201809
0201010232BIÓPSIA DE GLÂNDULA SALIVAR                                                                                                                                                                                                                               2I9999999900000000157100000031270000003127000000000006      9999201809
0201010240BIOPSIA DE IRIS, CORPO CILIAR, RETINA, COROIDE, VITREO E TUMOR INTRA OCULAR                                                                                                                                                                               2I0002000101800000157100000115860000019921000000833506      9999201809
0201010259BIOPSIA DE LAMINA PEDICULO E PROCESSOS VERTEBRAIS (A CEU ABERTO)                                                                                                                                                                                          3I0001000200880216157100000172460000000000000001150206      9999201809
0201010267BIOPSIA DE LESAO DE PARTES MOLES (POR AGULHA / CEU ABERTO)                                                                                                                                                                                                2I0001000100670000157100000065500000011436000000488606      9999201809
0201010275BIOPSIA DE MEDULA OSSEA                                                                                                                                                                                                                                   2I0001000100400000157100000187720000020000000000122806      9999201809
0201010283BIOPSIA DE MUSCULO (A CEU ABERTO)                                                                                                                                                                                                                         2I9999999900000000157100000018330000001833000000000006      9999201809
0201010291BIOPSIA DE NERVO                                                                                                                                                                                                                                          2I9999999900000000157100000000000000003006000000000006      9999201809
0201010305BIOPSIA DE OSSO / CARTILAGEM DA CINTURA ESCAPULAR (POR AGULHA / CEU ABERTO)                                                                                                                                                                               2I0002000200880000157100000119600000018275000000631506      9999201809
0201010313BIOPSIA DE OSSO / CARTILAGEM DA CINTURA PELVICA (POR AGULHA / CEU ABERTO)                                                                                                                                                                                 2I0002000200880000157100000119990000018339000000634006      9999201809
0201010321BIOPSIA DE OSSO / CARTILAGEM DE MEMBRO INFERIOR (POR AGULHA / CEU ABERTO)                                                                                                                                                                                 2I0002000100880000157100000122000000018878000000667806      9999201809
0201010330BIOPSIA DE OSSO / CARTILAGEM DE MEMBRO SUPERIOR (POR AGULHA / CEU ABERTO)                                                                                                                                                                                 2I0002000100880000157100000125410000018826000000628506      9999201809
0201010348BIÓPSIA DE OSSO DO CRÂNIO E DA FACE                                                                                                                                                                                                                       2I9999999900000000157100000000000000002399000000000006      9999201809
0201010356BIOPSIA DE PALPEBRA                                                                                                                                                                                                                                       2I9999999900000000157100000000000000001833000000000006      9999201809
0201010364BIOPSIA DE PAVILHAO AURICULAR                                                                                                                                                                                                                             2I0002999900000000157100000000000000001466000000000006      9999201809
0201010372BIOPSIA DE PELE E PARTES MOLES                                                                                                                                                                                                                            2I0001999900000000157100000025830000002583000000000006      9999201809
0201010380BIOPSIA DE PENIS                                                                                                                                                                                                                                          2M9999999900000000157100000018330000001833000000000006      9999201809
0201010399BIOPSIA DE PIRAMIDE NASAL                                                                                                                                                                                                                                 2I9999999900000000157100000000000000001833000000000006      9999201809
0201010402BIOPSIA DE PLEURA (POR ASPIRAÇÃO/AGULHA / PLEUROSCOPIA)                                                                                                                                                                                                   2I0002000100480000157100000090420000011368000000232606      9999201809
0201010410BIOPSIA DE PROSTATA                                                                                                                                                                                                                                       2M0001999900000120157100000092380000009238000000000006      9999201809
0201010429BIOPSIA DE PULMAO POR ASPIRACAO                                                                                                                                                                                                                           2I9999999900000000157100000000000000000000000000000006      9999201809
0201010437BIOPSIA DE RIM POR PUNCAO                                                                                                                                                                                                                                 2I9999999900000000157100000046190000004619000000000006      9999201809
0201010445BIOPSIA DE SEIO PARANASAL                                                                                                                                                                                                                                 2I0001999900000000157100000000000000001833000000000006      9999201809
0201010453BIOPSIA DE SINOVIA                                                                                                                                                                                                                                        2I0001999900000000157100000000000000003006000000000006      9999201809
0201010461BIOPSIA DE TESTICULO                                                                                                                                                                                                                                      2M0002999900000120157100000000000000004619000000000006      9999201809
0201010470BIOPSIA DE TIREOIDE OU PARATIREOIDE - PAAF                                                                                                                                                                                                                2I9999999900000000157100000000000000002373000000000006      9999201809
0201010488BIOPSIA DE URETER                                                                                                                                                                                                                                         2I0001999900000000157100000046190000004619000000000006      9999201809
0201010496BIOPSIA DE URETRA                                                                                                                                                                                                                                         2I0001999900000000157100000046190000004619000000000006      9999201809
0201010500BIOPSIA/PUNÇÃO DE VAGINA                                                                                                                                                                                                                                  2F9999999900000000157100000018330000001833000000000006      9999201809
0201010518BIOPSIA/PUNÇÃO DE VULVA                                                                                                                                                                                                                                   2F0001999900000000157100000018330000001833000000000006      9999201809
0201010526BIÓPSIA DOS TECIDOS MOLES DA BOCA                                                                                                                                                                                                                         2I9999999900000000157100000021560000002156000000000006      9999201809
0201010534BIOPSIA ESTEREOTAXICA                                                                                                                                                                                                                                     3I0001000214840156157100001074210000000000000006703206      9999201809
0201010542BIOPSIA PERCUTANEA ORIENTADA POR TOMOGRAFIA COMPUTADORIZADA / ULTRASSONOGRAFIA / RESSONANCIA MAGNETICA / RAIO X                                                                                                                                           3I9999999900000000157100000097000000009700000000000006      9999201809
0201010550BIOPSIA PRE-ESCALENICA                                                                                                                                                                                                                                    2I0001000200880000157100000101560000000000000000766706      9999201809
0201010569BIOPSIA/EXERESE DE NODULO DE MAMA                                                                                                                                                                                                                         2I9999999900000192157100000070000000007000000000000006      9999201809
0201010585PUNCAO ASPIRATIVA DE MAMA POR AGULHA FINA                                                                                                                                                                                                                 2I9999999900000192157100000000000000006648000000000006      9999201809
0201010593PUNCAO DE CISTERNA SUB-OCCIPITAL                                                                                                                                                                                                                          2I9999999900000000157100000000000000000704000000000006      9999201809
0201010607PUNCAO DE MAMA POR AGULHA GROSSA                                                                                                                                                                                                                          2I9999999900000192157100000000000000014000000000000006      9999201809
0201010615PUNCAO DE VAGINA                                                                                                                                                                                                                                          2F9999999900000000157100000014100000001410000000000006      9999201809
0201010623PUNCAO EXPLORADORA DO DEFERENTE                                                                                                                                                                                                                           2M9999999900000000157100000014100000001410000000000006      9999201809
0201010631PUNCAO LOMBAR                                                                                                                                                                                                                                             2I9999999900000000157100000000000000000704000000000006      9999201809
0201010640PUNCAO P/ ESVAZIAMENTO                                                                                                                                                                                                                                    2I9999999900000000157100000000000000001325000000000006      9999201809
0201010658PUNCAO VENTRICULAR TRANSFONTANELA                                                                                                                                                                                                                         2I0004999900000000005900000000000000000704000000000006      9999201809
0201010666BIOPSIA DO COLO UTERINO                                                                                                                                                                                                                                   2F0001999900000144157100000018330000001833000000000006      9999201809
0201020017COLETA DE LAVADO BRONCO-ALVEOLAR                                                                                                                                                                                                                          2I0001999900000000157100000000000000000280000000000006      9999201809
0201020025COLETA DE LINFA P/ PESQUISA DE M. LEPRAE                                                                                                                                                                                                                  1I9999999900000000157100000000000000000000000000000001      9999201809
0201020033COLETA DE MATERIAL P/ EXAME CITOPATOLOGICO DE COLO UTERINO                                                                                                                                                                                                1F9999999900000120157100000000000000000000000000000001      9999201809
0201020041COLETA DE MATERIAL P/ EXAME LABORATORIAL                                                                                                                                                                                                                  1I9999999900000000157100000000000000000000000000000001      9999201809
0201020050COLETA DE SANGUE P/ TRIAGEM NEONATAL                                                                                                                                                                                                                      1I9999999900000000001100000000000000000000000000000001      9999201809
0201020068COLETA DE SANGUE PARA TIPIFICAÇÃO DO ALELO HLA-B                                                                                                                                                                                                          2I0001999900000000157100000000000000000000000000000006      9999201809
0202010015CLEARANCE OSMOLAR                                                                                                                                                                                                                                         2I9999999900000000157100000000000000000351000000000006      9999201809
0202010023DETERMINACAO DE CAPACIDADE DE FIXACAO DO FERRO                                                                                                                                                                                                            2I9999999900000000157100000000000000000201000000000006      9999201809
0202010031DETERMINACAO DE CROMATOGRAFIA DE AMINOACIDOS                                                                                                                                                                                                              2I9999999900000000157100000000000000001565000000000006      9999201809
0202010040DETERMINACAO DE CURVA GLICEMICA (2 DOSAGENS)                                                                                                                                                                                                              2I9999999900000000157100000000000000000363000000000006      9999201809
0202010058DETERMINACAO DE CURVA GLICEMICA C/ INDUCAO POR CORTISONA ( 5 DOSAGENS)                                                                                                                                                                                    2I9999999900000000157100000000000000000655000000000006      9999201809
0202010066DETERMINACAO DE CURVA GLICEMICA C/ INDUCAO POR CORTISONA (4 DOSAGENS)                                                                                                                                                                                     2I9999999900000000157100000000000000000368000000000006      9999201809
0202010074DETERMINACAO DE CURVA GLICEMICA CLASSICA (5 DOSAGENS)                                                                                                                                                                                                     2I9999999900000000157100000000000000001000000000000006      9999201809
0202010082DETERMINACAO DE OSMOLARIDADE                                                                                                                                                                                                                              2I9999999900000000157100000000000000000351000000000006      9999201809
0202010090DOSAGEM DE 5-NUCLEOTIDASE                                                                                                                                                                                                                                 2I9999999900000000157100000000000000000351000000000006      9999201809
0202010104DOSAGEM DE ACETONA                                                                                                                                                                                                                                        2I9999999900000000157100000000000000000185000000000006      9999201809
0202010112DOSAGEM DE ACIDO ASCORBICO                                                                                                                                                                                                                                2I9999999900000000157100000000000000000201000000000006      9999201809
0202010120DOSAGEM DE ACIDO URICO                                                                                                                                                                                                                                    2I9999999900000000157100000000000000000185000000000006      9999201809
0202010139DOSAGEM DE ACIDO VANILMANDELICO                                                                                                                                                                                                                           2I9999999900000000157100000000000000000900000000000006      9999201809
0202010147DOSAGEM DE ALDOLASE                                                                                                                                                                                                                                       2I9999999900000000157100000000000000000368000000000006      9999201809
0202010155DOSAGEM DE ALFA-1-ANTITRIPSINA                                                                                                                                                                                                                            2I9999999900000000157100000000000000000368000000000006      9999201809
0202010163DOSAGEM DE ALFA-1-GLICOPROTEINA ACIDA                                                                                                                                                                                                                     2I9999999900000000157100000000000000000368000000000006      9999201809
0202010171DOSAGEM DE ALFA-2-MACROGLOBULINA                                                                                                                                                                                                                          2I9999999900000000157100000000000000000368000000000006      9999201809
0202010180DOSAGEM DE AMILASE                                                                                                                                                                                                                                        2I9999999900000000157100000000000000000225000000000006      9999201809
0202010198DOSAGEM DE AMONIA                                                                                                                                                                                                                                         2I9999999900000000157100000000000000000351000000000006      9999201809
0202010201DOSAGEM DE BILIRRUBINA TOTAL E FRACOES                                                                                                                                                                                                                    2I9999999900000000157100000000000000000201000000000006      9999201809
0202010210DOSAGEM DE CALCIO                                                                                                                                                                                                                                         2I9999999900000000157100000000000000000185000000000006      9999201809
0202010228DOSAGEM DE CALCIO IONIZAVEL                                                                                                                                                                                                                               2I9999999900000000157100000000000000000351000000000006      9999201809
0202010236DOSAGEM DE CAROTENO                                                                                                                                                                                                                                       2I9999999900000000157100000000000000000201000000000006      9999201809
0202010244DOSAGEM DE CATECOLAMINAS                                                                                                                                                                                                                                  2I9999999900000000157100000000000000000000000000000006      9999201809
0202010252DOSAGEM DE CERULOPLASMINA                                                                                                                                                                                                                                 2I9999999900000000157100000000000000000368000000000006      9999201809
0202010260DOSAGEM DE CLORETO                                                                                                                                                                                                                                        2I9999999900000000157100000000000000000185000000000006      9999201809
0202010279DOSAGEM DE COLESTEROL HDL                                                                                                                                                                                                                                 2I9999999900000000157100000000000000000351000000000006      9999201809
0202010287DOSAGEM DE COLESTEROL LDL                                                                                                                                                                                                                                 2I9999999900000000157100000000000000000351000000000006      9999201809
0202010295DOSAGEM DE COLESTEROL TOTAL                                                                                                                                                                                                                               2I9999999900000000157100000000000000000185000000000006      9999201809
0202010309DOSAGEM DE COLINESTERASE                                                                                                                                                                                                                                  2I9999999900000000157100000000000000000368000000000006      9999201809
0202010317DOSAGEM DE CREATININA                                                                                                                                                                                                                                     2I9999999900000000157100000000000000000185000000000006      9999201809
0202010325DOSAGEM DE CREATINOFOSFOQUINASE (CPK)                                                                                                                                                                                                                     2I9999999900000000157100000000000000000368000000000006      9999201809
0202010333DOSAGEM DE CREATINOFOSFOQUINASE FRACAO MB                                                                                                                                                                                                                 2I9999999900000000157100000000000000000412000000000006      9999201809
0202010341DOSAGEM DE DESIDROGENASE ALFA-HIDROXIBUTIRICA                                                                                                                                                                                                             2I9999999900000000157100000000000000000351000000000006      9999201809
0202010350DOSAGEM DE DESIDROGENASE GLUTAMICA                                                                                                                                                                                                                        2I9999999900000000157100000000000000000351000000000006      9999201809
0202010368DOSAGEM DE DESIDROGENASE LATICA                                                                                                                                                                                                                           2I9999999900000000157100000000000000000368000000000006      9999201809
0202010376DOSAGEM DE DESIDROGENASE LATICA (ISOENZIMAS FRACIONADAS)                                                                                                                                                                                                  2I9999999900000000157100000000000000000368000000000006      9999201809
0202010384DOSAGEM DE FERRITINA                                                                                                                                                                                                                                      2I9999999900000000157100000000000000001559000000000006      9999201809
0202010392DOSAGEM DE FERRO SERICO                                                                                                                                                                                                                                   2I9999999900000000157100000000000000000351000000000006      9999201809
0202010406DOSAGEM DE FOLATO                                                                                                                                                                                                                                         2I9999999900000000157100000000000000001565000000000006      9999201809
0202010414DOSAGEM DE FOSFATASE ACIDA TOTAL                                                                                                                                                                                                                          2I9999999900000000157100000000000000000201000000000006      9999201809
0202010422DOSAGEM DE FOSFATASE ALCALINA                                                                                                                                                                                                                             2I9999999900000000157100000000000000000201000000000006      9999201809
0202010430DOSAGEM DE FOSFORO                                                                                                                                                                                                                                        2I9999999900000000157100000000000000000185000000000006      9999201809
0202010449DOSAGEM DE FRACAO PROSTATICA DA FOSFATASE ACIDA                                                                                                                                                                                                           2M9999999900000000157100000000000000000201000000000006      9999201809
0202010457DOSAGEM DE GALACTOSE                                                                                                                                                                                                                                      2I9999999900000000157100000000000000000351000000000006      9999201809
0202010465DOSAGEM DE GAMA-GLUTAMIL-TRANSFERASE (GAMA GT)                                                                                                                                                                                                            2I9999999900000000157100000000000000000351000000000006      9999201809
0202010473DOSAGEM DE GLICOSE                                                                                                                                                                                                                                        2I9999999900000000157100000000000000000185000000000006      9999201809
0202010481DOSAGEM DE GLICOSE-6-FOSFATO DESIDROGENASE                                                                                                                                                                                                                2I9999999900000000157100000000000000000368000000000006      9999201809
0202010490DOSAGEM DE HAPTOGLOBINA                                                                                                                                                                                                                                   2I9999999900000000157100000000000000000368000000000006      9999201809
0202010503DOSAGEM DE HEMOGLOBINA GLICOSILADA                                                                                                                                                                                                                        2I9999999900000000157100000000000000000786000000000006      9999201809
0202010511DOSAGEM DE HIDROXIPROLINA                                                                                                                                                                                                                                 2I9999999900000000157100000000000000000368000000000006      9999201809
0202010520DOSAGEM DE ISOMERASE-FOSFOHEXOSE                                                                                                                                                                                                                          2I9999999900000000157100000000000000000351000000000006      9999201809
0202010538DOSAGEM DE LACTATO                                                                                                                                                                                                                                        2I9999999900000000157100000000000000000368000000000006      9999201809
0202010546DOSAGEM DE LEUCINO-AMINOPEPTIDASE                                                                                                                                                                                                                         2I9999999900000000157100000000000000000351000000000006      9999201809
0202010554DOSAGEM DE LIPASE                                                                                                                                                                                                                                         2I9999999900000000157100000000000000000225000000000006      9999201809
0202010562DOSAGEM DE MAGNESIO                                                                                                                                                                                                                                       2I9999999900000000157100000000000000000201000000000006      9999201809
0202010570DOSAGEM DE MUCO-PROTEINAS                                                                                                                                                                                                                                 2I9999999900000000157100000000000000000201000000000006      9999201809
0202010589DOSAGEM DE PIRUVATO                                                                                                                                                                                                                                       2I9999999900000000157100000000000000000368000000000006      9999201809
0202010597DOSAGEM DE PORFIRINAS                                                                                                                                                                                                                                     2I9999999900000000157100000000000000000351000000000006      9999201809
0202010600DOSAGEM DE POTASSIO                                                                                                                                                                                                                                       2I9999999900000000157100000000000000000185000000000006      9999201809
0202010619DOSAGEM DE PROTEINAS TOTAIS                                                                                                                                                                                                                               2I9999999900000000157100000000000000000140000000000006      9999201809
0202010627DOSAGEM DE PROTEINAS TOTAIS E FRACOES                                                                                                                                                                                                                     2I9999999900000000157100000000000000000185000000000006      9999201809
0202010635DOSAGEM DE SODIO                                                                                                                                                                                                                                          2I9999999900000000157100000000000000000185000000000006      9999201809
0202010643DOSAGEM DE TRANSAMINASE GLUTAMICO-OXALACETICA (TGO)                                                                                                                                                                                                       2I9999999900000000157100000000000000000201000000000006      9999201809
0202010651DOSAGEM DE TRANSAMINASE GLUTAMICO-PIRUVICA (TGP)                                                                                                                                                                                                          2I9999999900000000157100000000000000000201000000000006      9999201809
0202010660DOSAGEM DE TRANSFERRINA                                                                                                                                                                                                                                   2I9999999900000000157100000000000000000412000000000006      9999201809
0202010678DOSAGEM DE TRIGLICERIDEOS                                                                                                                                                                                                                                 2I9999999900000000157100000000000000000351000000000006      9999201809
0202010686DOSAGEM DE TRIPTOFANO                                                                                                                                                                                                                                     2I9999999900000000157100000000000000000351000000000006      9999201809
0202010694DOSAGEM DE UREIA                                                                                                                                                                                                                                          2I9999999900000000157100000000000000000185000000000006      9999201809
0202010708DOSAGEM DE VITAMINA B12                                                                                                                                                                                                                                   2I9999999900000000157100000000000000001524000000000006      9999201809
0202010716ELETROFORESE DE LIPOPROTEINAS                                                                                                                                                                                                                             2I9999999900000000157100000000000000000368000000000006      9999201809
0202010724ELETROFORESE DE PROTEINAS                                                                                                                                                                                                                                 2I9999999900000000157100000000000000000442000000000006      9999201809
0202010732GASOMETRIA (PH PCO2 PO2 BICARBONATO AS2 (EXCESSO OU DEFICIT BASE )                                                                                                                                                                                        2I9999999900000000157100000000000000001565000000000006      9999201809
0202010740PROVA DA D-XILOSE                                                                                                                                                                                                                                         2I9999999900000000157100000000000000000368000000000006      9999201809
0202010759TESTE DE TOLERANCIA A INSULINA / HIPOGLICEMIANTES ORAIS                                                                                                                                                                                                   2I9999999900000000157100000000000000000655000000000006      9999201809
0202010767DOSAGEM DE 25 HIDROXIVITAMINA D                                                                                                                                                                                                                           2I9999999900000000157100000000000000001524000000000006      9999201809
0202010775DETERMINAÇÃO DE CREMATÓCRITO NO LEITE HUMANO ORDENHADO                                                                                                                                                                                                    2N9999999900009999999900000000000000000153000000000006      9999201809
0202010783ACIDEZ TITULÁVEL NO LEITE HUMANO (DORNIC)                                                                                                                                                                                                                 2N9999999900009999999900000000000000000304000000000006      9999201809
0202020010CITOQUIMICA HEMATOLOGICA                                                                                                                                                                                                                                  2I9999999900000000157100000000000000000648000000000006      9999201809
0202020029CONTAGEM DE PLAQUETAS                                                                                                                                                                                                                                     2I9999999900000000157100000000000000000273000000000006      9999201809
0202020037CONTAGEM DE RETICULOCITOS                                                                                                                                                                                                                                 2I9999999900000000157100000000000000000273000000000006      9999201809
0202020045DETERMINACAO DE CURVA DE RESISTENCIA GLOBULAR                                                                                                                                                                                                             2I9999999900000000157100000000000000000273000000000006      9999201809
0202020053DETERMINACAO DE ENZIMAS ERITROCITARIAS (CADA)                                                                                                                                                                                                             2I9999999900000000157100000000000000000273000000000006      9999201809
0202020061DETERMINACAO DE SULFO-HEMOGLOBINA                                                                                                                                                                                                                         2I9999999900000000157100000000000000000273000000000006      9999201809
0202020070DETERMINACAO DE TEMPO DE COAGULACAO                                                                                                                                                                                                                       2I9999999900000000157100000000000000000273000000000006      9999201809
0202020088DETERMINACAO DE TEMPO DE LISE DA EUGLOBULINA                                                                                                                                                                                                              2I9999999900000000157100000000000000000273000000000006      9999201809
0202020096DETERMINACAO DE TEMPO DE SANGRAMENTO -DUKE                                                                                                                                                                                                                2I9999999900000000157100000000000000000273000000000006      9999201809
0202020100DETERMINACAO DE TEMPO DE SANGRAMENTO DE IVY                                                                                                                                                                                                               2I9999999900000000157100000000000000000900000000000006      9999201809
0202020118DETERMINACAO DE TEMPO DE SOBREVIDA DE HEMACIAS                                                                                                                                                                                                            2I9999999900000000157100000000000000000579000000000006      9999201809
0202020126DETERMINACAO DE TEMPO DE TROMBINA                                                                                                                                                                                                                         2I9999999900000000157100000000000000000285000000000006      9999201809
0202020134DETERMINACAO DE TEMPO DE TROMBOPLASTINA PARCIAL ATIVADA (TTP ATIVADA)                                                                                                                                                                                     2I9999999900000000157100000000000000000577000000000006      9999201809
0202020142DETERMINACAO DE TEMPO E ATIVIDADE DA PROTROMBINA (TAP)                                                                                                                                                                                                    2I9999999900000000157100000000000000000273000000000006      9999201809
0202020150DETERMINACAO DE VELOCIDADE DE HEMOSSEDIMENTACAO (VHS)                                                                                                                                                                                                     2I9999999900000000157100000000000000000273000000000006      9999201809
0202020169DOSAGEM DE ANTICOAGULANTE CIRCULANTE                                                                                                                                                                                                                      2I9999999900000000157100000000000000000411000000000006      9999201809
0202020177DOSAGEM DE ANTITROMBINA III                                                                                                                                                                                                                               2I9999999900000000157100000000000000000648000000000006      9999201809
0202020185DOSAGEM DE FATOR II                                                                                                                                                                                                                                       2I9999999900000000157100000000000000000531000000000006      9999201809
0202020193DOSAGEM DE FATOR IX                                                                                                                                                                                                                                       2I9999999900000000157100000000000000000761000000000006      9999201809
0202020207DOSAGEM DE FATOR V                                                                                                                                                                                                                                        2I9999999900000000157100000000000000000473000000000006      9999201809
0202020215DOSAGEM DE FATOR VII                                                                                                                                                                                                                                      2I9999999900000000157100000000000000000809000000000006      9999201809
0202020223DOSAGEM DE FATOR VIII                                                                                                                                                                                                                                     2I9999999900000000157100000000000000000663000000000006      9999201809
0202020231DOSAGEM DE FATOR VIII (INIBIDOR)                                                                                                                                                                                                                          2I9999999900000000157100000000000000001500000000000006      9999201809
0202020240DOSAGEM DE FATOR VON WILLEBRAND (ANTIGENO)                                                                                                                                                                                                                2I9999999900000000157100000000000000001891000000000006      9999201809
0202020258DOSAGEM DE FATOR X                                                                                                                                                                                                                                        2I9999999900000000157100000000000000000666000000000006      9999201809
0202020266DOSAGEM DE FATOR XI                                                                                                                                                                                                                                       2I9999999900000000157100000000000000000911000000000006      9999201809
0202020274DOSAGEM DE FATOR XII                                                                                                                                                                                                                                      2I9999999900000000157100000000000000001051000000000006      9999201809
0202020282DOSAGEM DE FATOR XIII                                                                                                                                                                                                                                     2I9999999900000000157100000000000000000666000000000006      9999201809
0202020290DOSAGEM DE FIBRINOGENIO                                                                                                                                                                                                                                   2I9999999900000000157100000000000000000460000000000006      9999201809
0202020304DOSAGEM DE HEMOGLOBINA                                                                                                                                                                                                                                    2I9999999900000000157100000000000000000153000000000006      9999201809
0202020312DOSAGEM DE HEMOGLOBINA - INSTABILIDADE A 37OC                                                                                                                                                                                                             2I9999999900000000157100000000000000000273000000000006      9999201809
0202020320DOSAGEM DE HEMOGLOBINA FETAL                                                                                                                                                                                                                              2I9999999900000000157100000000000000000273000000000006      9999201809
0202020339DOSAGEM DE HEMOSSIDERINA                                                                                                                                                                                                                                  2I9999999900000000157100000000000000000273000000000006      9999201809
0202020347DOSAGEM DE PLASMINOGENIO                                                                                                                                                                                                                                  2I9999999900000000157100000000000000000411000000000006      9999201809
0202020355ELETROFORESE DE HEMOGLOBINA                                                                                                                                                                                                                               2I9999999900000000157100000000000000000541000000000006      9999201809
0202020363ERITROGRAMA (ERITROCITOS, HEMOGLOBINA, HEMATOCRITO)                                                                                                                                                                                                       2I9999999900000000157100000000000000000273000000000006      9999201809
0202020371HEMATOCRITO                                                                                                                                                                                                                                               2I9999999900000000157100000000000000000153000000000006      9999201809
0202020380HEMOGRAMA COMPLETO                                                                                                                                                                                                                                        2I9999999900000000157100000000000000000411000000000006      9999201809
0202020398LEUCOGRAMA                                                                                                                                                                                                                                                2I9999999900000000157100000000000000000273000000000006      9999201809
0202020401PESQUISA DE ATIVIDADE DO COFATOR DE RISTOCETINA                                                                                                                                                                                                           2I9999999900000000157100000000000000002500000000000006      9999201809
0202020410PESQUISA DE CELULAS LE                                                                                                                                                                                                                                    2I9999999900000000157100000000000000000411000000000006      9999201809
0202020428PESQUISA DE CORPUSCULOS DE HEINZ                                                                                                                                                                                                                          2I9999999900000000157100000000000000000273000000000006      9999201809
0202020436PESQUISA DE FILARIA                                                                                                                                                                                                                                       2I9999999900000000157100000000000000000273000000000006      9999201809
0202020444PESQUISA DE HEMOGLOBINA S                                                                                                                                                                                                                                 2I9999999900000000157100000000000000000273000000000006      9999201809
0202020452PESQUISA DE PLASMODIO                                                                                                                                                                                                                                     1I9999999900000000157100000000000000000000000000000001      9999201809
0202020460PESQUISA DE TRIPANOSSOMA                                                                                                                                                                                                                                  2I9999999900000000157100000000000000000273000000000006      9999201809
0202020479PROVA DE COMPATIBILIDADE PRE-TRANSFUSIONAL (MEIOS SALINOS, ALBUMINOSO E COOMBS)                                                                                                                                                                           2I9999999900000000157100000000000000000000000000000006      9999201809
0202020487PROVA DE CONSUMO DE PROTROMBINA                                                                                                                                                                                                                           2I9999999900000000157100000000000000000411000000000006      9999201809
0202020495PROVA DE RETRACAO DO COAGULO                                                                                                                                                                                                                              2I9999999900000000157100000000000000000273000000000006      9999201809
0202020509PROVA DO LACO                                                                                                                                                                                                                                             2I9999999900000000157100000000000000000273000000000006      9999201809
0202020517RASTREIO P/ DEFICIENCIA DE ENZIMAS ERITROCITARIAS                                                                                                                                                                                                         2I9999999900000000157100000000000000000273000000000006      9999201809
0202020525TESTE DE AGREGACAO DE PLAQUETAS                                                                                                                                                                                                                           2I9999999900000000157100000000000000001200000000000006      9999201809
0202020533TESTE DE HAM (HEMOLISE ACIDA)                                                                                                                                                                                                                             2I9999999900000000157100000000000000000273000000000006      9999201809
0202020541TESTE DIRETO DE ANTIGLOBULINA HUMANA (TAD)                                                                                                                                                                                                                2I9999999900000000157100000000000000000273000000000006      9999201809
0202030016CONTAGEM DE LINFOCITOS B                                                                                                                                                                                                                                  2I9999999900000000157100000000000000001500000000000006      9999201809
0202030024CONTAGEM DE LINFOCITOS CD4/CD8                                                                                                                                                                                                                            3I9999999900000000157100000000000000001500000000000006      9999201809
0202030032CONTAGEM DE LINFOCITOS T TOTAIS                                                                                                                                                                                                                           2I9999999900000000157100000000000000001500000000000006      9999201809
0202030040DETECCAO DE ÁCIDOS NUCLEICOS DO HIV-1 (QUALITATIVO)                                                                                                                                                                                                       2I9999999900000024157100000000000000006500000000000006      9999201809
0202030059DETECCAO DE RNA DO VIRUS DA HEPATITE C (QUALITATIVO)                                                                                                                                                                                                      2I9999999900000000157100000000000000009600000000000006      9999201809
0202030067DETERMINACAO DE COMPLEMENTO (CH50)                                                                                                                                                                                                                        2I9999999900000000157100000000000000000925000000000006      9999201809
0202030075DETERMINACAO DE FATOR REUMATOIDE                                                                                                                                                                                                                          2I9999999900000000157100000000000000000283000000000006      9999201809
0202030083DETERMINACAO QUANTITATIVA DE PROTEINA C REATIVA                                                                                                                                                                                                           2I9999999900000000157100000000000000000925000000000006      9999201809
0202030091DOSAGEM DE ALFA-FETOPROTEINA                                                                                                                                                                                                                              2I9999999900000000157100000000000000001506000000000006      9999201809
0202030105DOSAGEM DE ANTIGENO PROSTATICO ESPECIFICO (PSA)                                                                                                                                                                                                           2M9999999900000000157100000000000000001642000000000006      9999201809
0202030113DOSAGEM DE BETA-2-MICROGLOBULINA                                                                                                                                                                                                                          2I9999999900000000157100000000000000001355000000000006      9999201809
0202030121DOSAGEM DE COMPLEMENTO C3                                                                                                                                                                                                                                 2I9999999900000000157100000000000000001716000000000006      9999201809
