0101010010ATIVIDADE EDUCATIVA / ORIENTAÇÃO EM GRUPO NA ATENÇÃO PRIMÁRIA                                                                                                                                                                                             1N9999999900009999999900000000000000000000000000000000000001      9999202510
0101010028ATIVIDADE EDUCATIVA / ORIENTAÇÃO EM GRUPO NA ATENÇÃO ESPECIALIZADA                                                                                                                                                                                        2I9999999900000084157100000000000000000000027000000000000006      9999202510
0101010036PRÁTICA CORPORAL / ATIVIDADE FÍSICA EM GRUPO                                                                                                                                                                                                              1I9999999900000072157100000000000000000000000000000000000001      9999202510
0101010095PREVENÇÃO DA COVID-19 NAS ESCOLAS                                                                                                                                                                                                                         1I9999999900000000157100000000000000000000000000000000000001      9999202510
0101010109ATIVIDADES EDUCATIVAS DA POPULAÇÃO SOBRE A TEMÁTICA DAMALÁRIA                                                                                                                                                                                             1I9999999900000000157100000000000000000000000000000000000007      9999202510
0101010117ATIVIDADE DE EDUCAÇÃO PERMANENTE EM SAÚDE DO TRABALHADOR                                                                                                                                                                                                  2N9999999900009999999900000000000000000000000000000000000005      9999202510
0101010125ATIVIDADES EDUCATIVAS DA POPULAÇÃO SOBRE A TEMÁTICA DE ACIDENTE POR ANIMAIS PEÇONHENTOS.                                                                                                                                                                  1I9999999900000000157100000000000000000000000000000000000007      9999202510
0101010133ATIVIDADES EDUCATIVAS DA POPULAÇÃO SOBRE A TEMÁTICA DA CÓLERA.                                                                                                                                                                                            1I9999999900000000157100000000000000000000000000000000000007      9999202510
0101010141ATIVIDADES EDUCATIVAS DA POPULAÇÃO SOBRE A TEMÁTICA DA DOENÇA DE HAFF.                                                                                                                                                                                    1I9999999900000000157100000000000000000000000000000000000007      9999202510
0101010150ATIVIDADES EDUCATIVAS DA POPULAÇÃO SOBRE A TEMÁTICA DE DOENÇAS DIARREICAS AGUDAS.                                                                                                                                                                         1I9999999900000000157100000000000000000000000000000000000007      9999202510
0101010168ATIVIDADES EDUCATIVAS DA POPULAÇÃO SOBRE A TEMÁTICA DA ESPOROTRICOSE.                                                                                                                                                                                     1I9999999900000000157100000000000000000000000000000000000007      9999202510
0101010176ATIVIDADES EDUCATIVAS DA POPULAÇÃO SOBRE A TEMÁTICA DA FEBRE MACULOSA BRASILEIRA.                                                                                                                                                                         1I9999999900000000157100000000000000000000000000000000000007      9999202510
0101010184ATIVIDADES EDUCATIVAS DA POPULAÇÃO SOBRE A TEMÁTICA DE LEISHMANIOSE TEGUMENTAR.                                                                                                                                                                           1I9999999900000000157100000000000000000000000000000000000007      9999202510
0101010192ATIVIDADES EDUCATIVAS DA POPULAÇÃO SOBRE A TEMÁTICA DA LEISHMANIOSE VISCERAL.                                                                                                                                                                             1I9999999900000000157100000000000000000000000000000000000007      9999202510
0101010206ATIVIDADES EDUCATIVAS DA POPULAÇÃO SOBRE A TEMÁTICA DA LEPTOSPIROSE                                                                                                                                                                                       1I9999999900000000157100000000000000000000000000000000000007      9999202510
0101010214ATIVIDADES EDUCATIVAS DA POPULAÇÃO SOBRE A TEMÁTICA DA DOENÇA DA RAIVA.                                                                                                                                                                                   1I9999999900000000157100000000000000000000000000000000000007      9999202510
0101010222ATIVIDADES EDUCATIVAS DA POPULAÇÃO SOBRE A TEMÁTICA DA TOXOPLASMOSE.                                                                                                                                                                                      1I9999999900000000157100000000000000000000000000000000000007      9999202510
0101010230ATIVIDADES EDUCATIVAS DA POPULAÇÃO SOBRE A TEMÁTICA DE UMA SÓ SAÚDE.                                                                                                                                                                                      1I9999999900000000157100000000000000000000000000000000000007      9999202510
0101010249ATIVIDADES EDUCATIVAS DA POPULAÇÃO SOBRE A TEMÁTICA DA HANSENÍASE                                                                                                                                                                                         1I9999999900000000157100000000000000000000000000000000000007      9999202510
0101010257ATIVIDADES EDUCATIVAS DA POPULAÇÃO SOBRE A TEMÁTICA DA ESQUISTOSSOMOSE.                                                                                                                                                                                   1I9999999900000000157100000000000000000000000000000000000007      9999202510
0101010265ATIVIDADES EDUCATIVAS DA POPULAÇÃO SOBRE A TEMÁTICA DO TRACOMA.                                                                                                                                                                                           1I9999999900000000157100000000000000000000000000000000000007      9999202510
0101010273ATIVIDADES EDUCATIVAS DA POPULAÇÃO SOBRE A TEMÁTICA DAS GEO-HELMINTÍASES                                                                                                                                                                                  1I9999999900000000157100000000000000000000000000000000000007      9999202510
0101010281ATIVIDADES EDUCATIVAS DA POPULAÇÃO SOBRE A TEMÁTICA DA ONCOCERCOSE.                                                                                                                                                                                       1I9999999900000000157100000000000000000000000000000000000007      9999202510
0101010290ATIVIDADES EDUCATIVAS DA POPULAÇÃO SOBRE A TEMÁTICA DA FILARIOSE LINFÁTICO.                                                                                                                                                                               1I9999999900000000157100000000000000000000000000000000000007      9999202510
0101010303ATIVIDADES EDUCATIVAS DA POPULAÇÃO SOBRE A TEMÁTICA DA DOENÇA DE CHAGAS.                                                                                                                                                                                  1I9999999900000000157100000000000000000000000000000000000007      9999202510
0101020015AÇÃO COLETIVA DE APLICAÇÃO TÓPICA DE FLÚOR GEL                                                                                                                                                                                                            1I9999999900000048157100000000000000000000000000000000000001      9999202510
0101020023AÇÃO COLETIVA DE BOCHECHO FLUORADO                                                                                                                                                                                                                        1I9999999900000084157100000000000000000000000000000000000001      9999202510
0101020031AÇÃO COLETIVA DE ESCOVAÇÃO DENTAL SUPERVISIONADA                                                                                                                                                                                                          1I9999999900000036157100000000000000000000000000000000000001      9999202510
0101020040AÇÃO COLETIVA DE EXAME BUCAL COM FINALIDADE EPIDEMIOLÓGICA                                                                                                                                                                                                1I9999999900000000157100000000000000000000000000000000000001      9999202510
0101020058APLICAÇÃO DE CARIOSTÁTICO (POR DENTE)                                                                                                                                                                                                                     1I9999999900000000157100000000000000000000000000000000000001      9999202510
0101020066APLICAÇÃO DE SELANTE (POR DENTE)                                                                                                                                                                                                                          1I9999999900000000157100000000000000000000000000000000000001      9999202510
0101020074APLICAÇÃO TÓPICA DE FLÚOR (INDIVIDUAL POR SESSÃO)                                                                                                                                                                                                         1I9999999900000000157100000000000000000000000000000000000001      9999202510
0101020082EVIDENCIAÇÃO DE PLACA BACTERIANA                                                                                                                                                                                                                          1I9999999900000000157100000000000000000000000000000000000001      9999202510
0101020090SELAMENTO PROVISÓRIO DE CAVIDADE DENTÁRIA                                                                                                                                                                                                                 1I9999999900000000157100000000000000000000000000000000000001      9999202510
0101020104ORIENTAÇÃO DE HIGIENE BUCAL                                                                                                                                                                                                                               1I9999999900000000157100000000000000000000000000000000000001      9999202510
0101020112AÇÃO COLETIVA DE PREVENÇÃO DE CÂNCER BUCAL                                                                                                                                                                                                                1I9999999900000120157100000000000000000000000000000000000001      9999202510
0101020120ORIENTAÇÃO DE HIGIENIZAÇÃO DE PRÓTESES DENTÁRIAS                                                                                                                                                                                                          1I9999999900000120157100000000000000000000000000000000000001      9999202510
0101030010VISITA DOMICILIAR POR PROFISSIONAL DE NÍVEL MÉDIO                                                                                                                                                                                                         1I9999999900000000157100000000000000000000000000000000000001      9999202510
0101030029VISITA DOMICILIAR/INSTITUCIONAL POR PROFISSIONAL DE NÍVEL SUPERIOR                                                                                                                                                                                        1I9999999900000000157100000000000000000000000000000000000001      9999202510
0101040024AVALIAÇÃO ANTROPOMÉTRICA                                                                                                                                                                                                                                  1I9999999900000000157100000000000000000000000000000000000001      9999202510
0101040032COLETA EXTERNA DE LEITE MATERNO (POR DOADORA)                                                                                                                                                                                                             2I9999999900000144059900000000000000000000030000000000000006      9999202510
0101040040PASTEURIZAÇÃO DO LEITE HUMANO (CADA 5 LITROS)                                                                                                                                                                                                             2N9999999900009999999900000000000000000000110600000000000006      9999202510
0101040059ADMINISTRAÇÃO DE VITAMINA A                                                                                                                                                                                                                               1I9999999900000006059900000000000000000000000000000000000001      9999202510
0101040075MEDIÇÃO DE ALTURA                                                                                                                                                                                                                                         1I9999999900000000157100000000000000000000000000000000000001      9999202510
0101040083MEDIÇÃO DE PESO                                                                                                                                                                                                                                           1I9999999900000000157100000000000000000000000000000000000001      9999202510
0101040091DISPENSAÇÃO DE SUPLEMENTO DE MICRONUTRIENTES EM PÓ - NUTRISUS                                                                                                                                                                                             1I9999999900000006003500000000000000000000000000000000000001      9999202510
0101040105DISPENSAÇÃO DE SUPLEMENTO DE ÁCIDO FÓLICO                                                                                                                                                                                                                 1I9999999900000108073100000000000000000000000000000000000001      9999202510
0101040113DISPENSAÇÃO DE SUPLEMENTO DE FERRO                                                                                                                                                                                                                        1I9999999900000005073100000000000000000000000000000000000001      9999202510
0101040121AVALIAÇÃO DO RISCO DE INSEGURANÇA ALIMENTAR                                                                                                                                                                                                               1I9999999900000216157100000000000000000000000000000000000001      9999202510
0101050011PRATICAS CORPORAIS EM MEDICINA TRADICIONAL CHINESA                                                                                                                                                                                                        1I9999999900000000157100000000000000000000000000000000000001      9999202510
0101050020TERAPIA COMUNITÁRIA                                                                                                                                                                                                                                       1I9999999900000000157100000000000000000000000000000000000001      9999202510
0101050046YOGA                                                                                                                                                                                                                                                      1I9999999900000000157100000000000000000000000000000000000001      9999202510
0101050054OFICINA DE MASSAGEM/ AUTO-MASSAGEM                                                                                                                                                                                                                        1I9999999900000000157100000000000000000000000000000000000001      9999202510
0101050062SESSÃO DE ARTETERAPIA                                                                                                                                                                                                                                     1I9999999900000000157100000000000000000000000000000000000001      9999202510
0101050070SESSÃO DE MEDITAÇÃO                                                                                                                                                                                                                                       1I9999999900000000157100000000000000000000000000000000000001      9999202510
0101050089SESSÃO DE MUSICOTERAPIA                                                                                                                                                                                                                                   1I9999999900000000157100000000000000000000000000000000000001      9999202510
0101050097SESSÃO DE ANTROPOSOFIA APLICADA À SAÚDE                                                                                                                                                                                                                   1I9999999900000000157100000000000000000000000000000000000001      9999202510
0101050100SESSÃO DE BIODANÇA                                                                                                                                                                                                                                        1I9999999900000000157100000000000000000000000000000000000001      9999202510
0101050119SESSÃO DE BIOENERGÉTICA                                                                                                                                                                                                                                   1I9999999900000000157100000000000000000000000000000000000001      9999202510
0101050127SESSÃO DE CONSTELAÇÃO FAMILIAR                                                                                                                                                                                                                            1I9999999900000000157100000000000000000000000000000000000001      9999202510
0101050135SESSÃO DE DANÇA CIRCULAR                                                                                                                                                                                                                                  1I9999999900000000157100000000000000000000000000000000000001      9999202510
0101050143SESSÃO DE TERMALISMO                                                                                                                                                                                                                                      1I9999999900000000157100000000000000000000000000000000000001      9999202510
0101050151OFICINA COLETIVA DE SHANTALA                                                                                                                                                                                                                              1I9999999900000000157100000000000000000000000000000000000001      9999202510
0101050160ATIVIDADE COLETIVA DE AYURVEDA                                                                                                                                                                                                                            1I9999999900000000157100000000000000000000000000000000000001      9999202510
0101050178ATIVIDADE COLETIVA DE ANTROPOSOFIA APLICADA À SAÚDE                                                                                                                                                                                                       1I9999999900000000157100000000000000000000000000000000000001      9999202510
0102010056ATIVIDADES EDUCATIVAS PARA O SETOR REGULADO                                                                                                                                                                                                               0N9999999900009999999900000000000000000000000000000000000007      9999202510
0102010064ANÁLISE DE PROJETOS BÁSICOS DE ARQUITETURA                                                                                                                                                                                                                0N9999999900009999999900000000000000000000000000000000000007      9999202510
0102010072CADASTRO DE ESTABELECIMENTOS SUJEITOS À VIGILÂNCIA SANITÁRIA                                                                                                                                                                                              0N9999999900009999999900000000000000000000000000000000000007      9999202510
0102010145INSPEÇÃO SANITÁRIA DE HOSPITAIS                                                                                                                                                                                                                           0N9999999900009999999900000000000000000000000000000000000007      9999202510
0102010153INVESTIGAÇÃO DE EVENTOS ADVERSOS E/OU QUEIXAS TÉCNICAS                                                                                                                                                                                                    0N9999999900009999999900000000000000000000000000000000000007      9999202510
0102010161EXCLUSÃO DE CADASTRO DE ESTABELECIMENTOS SUJEITOS À VIGILÂNCIA SANITÁRIA COM ATIVIDADES ENCERRADAS.                                                                                                                                                       0N9999999900009999999900000000000000000000000000000000000007      9999202510
0102010170INSPEÇÃO DOS ESTABELECIMENTOS SUJEITOS À VIGILÂNCIA SANITÁRIA                                                                                                                                                                                             0N9999999900009999999900000000000000000000000000000000000007      9999202510
0102010188LICENCIAMENTO DOS ESTABELECIMENTOS SUJEITOS À VIGILÂNCIA SANITÁRIA                                                                                                                                                                                        0N9999999900009999999900000000000000000000000000000000000007      9999202510
0102010196APROVAÇÃO DE PROJETOS BÁSICOS DE ARQUITETURA                                                                                                                                                                                                              0N9999999900009999999900000000000000000000000000000000000007      9999202510
0102010200INVESTIGAÇÃO DE SURTOS DE DOENÇAS TRANSMITIDAS POR ALIMENTOS                                                                                                                                                                                              0N9999999900009999999900000000000000000000000000000000000007      9999202510
0102010218INVESTIGAÇÃO DE SURTOS DE INFECÇÃO EM SERVIÇOS DE SAÚDE                                                                                                                                                                                                   0N9999999900009999999900000000000000000000000000000000000007      9999202510
0102010226ATIVIDADE EDUCATIVA PARA A POPULAÇÃO                                                                                                                                                                                                                      0N9999999900009999999900000000000000000000000000000000000007      9999202510
0102010234RECEBIMENTO DE DENÚNCIAS/RECLAMAÇÕES                                                                                                                                                                                                                      0I9999999900000005157100000000000000000000000000000000000007      9999202510
0102010242ATENDIMENTO À DENÚNCIAS/RECLAMAÇÕES                                                                                                                                                                                                                       0N9999999900009999999900000000000000000000000000000000000007      9999202510
0102010250CADASTRO DE HOSPITAIS                                                                                                                                                                                                                                     0N9999999900009999999900000000000000000000000000000000000007      9999202510
0102010269LICENCIAMENTO SANITÁRIO DE HOSPITAIS                                                                                                                                                                                                                      0N9999999900009999999900000000000000000000000000000000000007      9999202510
0102010277CADASTRO DE INSTITUIÇÕES DE LONGA PERMANÊNCIA PARA IDOSOS                                                                                                                                                                                                 0N9999999900009999999900000000000000000000000000000000000007      9999202510
0102010285INSPEÇÃO SANITÁRIA DE INSTITUIÇÕES DE LONGA PERMANÊNCIA PARA IDOSOS                                                                                                                                                                                       0N9999999900009999999900000000000000000000000000000000000007      9999202510
0102010293LICENCIAMENTO SANITÁRIO DE INSTITUIÇÕES DE LONGA PERMANÊNCIA PARA IDOSOS                                                                                                                                                                                  0N9999999900009999999900000000000000000000000000000000000007      9999202510
0102010307CADASTRO DE INDÚSTRIAS DE MEDICAMENTOS                                                                                                                                                                                                                    0N9999999900009999999900000000000000000000000000000000000007      9999202510
0102010315INSPEÇÃO SANITÁRIA DE INDÚSTRIA DE MEDICAMENTOS                                                                                                                                                                                                           0N9999999900009999999900000000000000000000000000000000000007      9999202510
0102010323LICENCIAMENTO SANITÁRIO DE INDÚSTRIAS DE MEDICAMENTOS                                                                                                                                                                                                     0N9999999900009999999900000000000000000000000000000000000007      9999202510
0102010331CADASTRO DE SERVIÇOS DE DIAGNÓSTICO E TRATAMENTO DO CÂNCER DE COLO DE ÚTERO E MAMA                                                                                                                                                                        0N9999999900009999999900000000000000000000000000000000000007      9999202510
0102010340INSPEÇÃO SANITÁRIA DE SERVIÇOS DE DIAGNÓSTICO E TRATAMENTO DO CÂNCER DE COLO DE ÚTERO E MAMA.                                                                                                                                                             0N9999999900009999999900000000000000000000000000000000000007      9999202510
0102010358LICENCIAMENTO SANITÁRIO DE SERVIÇOS DE DIAGNÓSTICO E TRATAMENTO DO CÂNCER DE COLO DE ÚTERO E MAMA                                                                                                                                                         0N9999999900009999999900000000000000000000000000000000000007      9999202510
0102010366CADASTRO DE SERVIÇOS HOSPITALARES DE ATENÇÃO AO PARTO E À CRIANÇA                                                                                                                                                                                         0N9999999900009999999900000000000000000000000000000000000007      9999202510
0102010374INSPEÇÃO SANITÁRIA DE SERVIÇOS HOSPITALARES DE ATENÇÃO AO PARTO E À CRIANÇA                                                                                                                                                                               0N9999999900009999999900000000000000000000000000000000000007      9999202510
0102010382LICENCIAMENTO SANITÁRIO DE SERVIÇOS HOSPITALARES DE ATENÇÃO AO PARTO E À CRIANÇA                                                                                                                                                                          0N9999999900009999999900000000000000000000000000000000000007      9999202510
0102010390CADASTRO DE SERVIÇOS DE HEMOTERAPIA                                                                                                                                                                                                                       0N9999999900009999999900000000000000000000000000000000000007      9999202510
0102010404INSPEÇÃO SANITÁRIA DE SERVIÇOS DE HEMOTERAPIA                                                                                                                                                                                                             0N9999999900009999999900000000000000000000000000000000000007      9999202510
0102010412LICENCIAMENTO SANITÁRIO DE SERVIÇOS DE HEMOTERAPIA                                                                                                                                                                                                        0N9999999900009999999900000000000000000000000000000000000007      9999202510
0102010420CADASTRO DE SERVIÇOS DE TERAPIA RENAL SUBSTITUTIVA                                                                                                                                                                                                        0N9999999900009999999900000000000000000000000000000000000007      9999202510
0102010439INSPEÇÃO SANITÁRIA DE SERVIÇOS DE TERAPIA RENAL SUBSTITUTIVA                                                                                                                                                                                              0N9999999900009999999900000000000000000000000000000000000007      9999202510
0102010447LICENCIAMENTO SANITÁRIO DE SERVIÇOS DE TERAPIA RENAL SUBSTITUTIVA                                                                                                                                                                                         0N9999999900009999999900000000000000000000000000000000000007      9999202510
0102010455CADASTRO DE SERVIÇOS DE ALIMENTAÇÃO                                                                                                                                                                                                                       0N9999999900009999999900000000000000000000000000000000000007      9999202510
0102010463INSPEÇÃO SANITÁRIA DE SERVIÇOS DE ALIMENTAÇÃO                                                                                                                                                                                                             0N9999999900009999999900000000000000000000000000000000000007      9999202510
0102010471LICENCIAMENTO SANITÁRIO DE SERVIÇOS DE ALIMENTAÇÃO                                                                                                                                                                                                        0N9999999900009999999900000000000000000000000000000000000007      9999202510
0102010480FISCALIZAÇÃO DO USO DE PRODUTOS FUMÍGENOS DERIVADOS DO TABACO EM AMBIENTES COLETIVOS FECHADOS, PÚBLICOS OU PRIVADOS                                                                                                                                       0N9999999900009999999900000000000000000000000000000000000007      9999202510
0102010498LAUDO DE ANÁLISE LABORATORIAL DO PROGRAMA DE MONITORAMENTO DE ALIMENTOS RECEBIDOS PELA VIGILÂNCIA SANITÁRIA                                                                                                                                               0N9999999900009999999900000000000000000000000000000000000007      9999202510
0102010501ATIVIDADES EDUCATIVAS SOBRE A TEMÁTICA DA DENGUE,REALIZADAS PARA A POPULAÇÃO                                                                                                                                                                              0N9999999900009999999900000000000000000000000000000000000007      9999202510
0102010510ATIVIDADES EDUCATIVAS,COM RELAÇÃO AO CONSUMO DE SÓDIO, AÇÚCAR E GORDURAS, REALIZADAS PARA O SETOR REGULADO E A POPULAÇÃO                                                                                                                                  0N9999999900009999999900000000000000000000000000000000000007      9999202510
0102010528INSTAURAÇÃO DE PROCESSO ADMINISTRATIVO SANITÁRIO                                                                                                                                                                                                          0N9999999900009999999900000000000000000000000000000000000007      9999202510
0102010536CONCLUSÃO DE PROCESSO ADMINISTRATIVO SANITÁRIO                                                                                                                                                                                                            0N9999999900009999999900000000000000000000000000000000000007      9999202510
0102010544CADASTRO DE INDÚSTRIAS DE INSUMOS FARMACÊUTICOS                                                                                                                                                                                                           0N9999999900009999999900000000000000000000000000000000000007      9999202510
0102010552CADASTRO DE INDÚSTRIAS DE PRODUTOS PARA SAÚDE                                                                                                                                                                                                             0N9999999900009999999900000000000000000000000000000000000007      9999202510
0102010560INSPEÇÃO SANITÁRIA DE INDÚSTRIAS DE INSUMOS FARMACÊUTICOS                                                                                                                                                                                                 0N9999999900009999999900000000000000000000000000000000000007      9999202510
0102010579INSPEÇÃO SANITÁRIA DE INDÚSTRIAS DE PRODUTOS PARA SAÚDE                                                                                                                                                                                                   0N9999999900009999999900000000000000000000000000000000000007      9999202510
0102010587IMPLEMENTAÇÃO DE PROCEDIMENTOS (POPS) HARMONIZADOS EM NÍVEL TRIPARTITE RELACIONADOS À INSPEÇÃO EM ESTABELECIMENTOS FABRICANTES DE MEDICAMENTOS                                                                                                            0N9999999900009999999900000000000000000000000000000000000007      9999202510
0102010595IMPLEMENTAÇÃO DE PROCEDIMENTOS (POPS) HARMONIZADOS EM NÍVEL TRIPARTITE RELACIONADOS À INSPEÇÃO EM ESTABELECIMENTOS FABRICANTES DE INSUMOS FARMACÊUTICOS                                                                                                   0N9999999900009999999900000000000000000000000000000000000007      9999202510
0102010609IMPLEMENTAÇÃO DE PROCEDIMENTOS (POPS) HARMONIZADOS EM NÍVEL TRIPARTITE RELACIONADOS A INSPEÇÃO EM ESTABELECIMENTOS FABRICANTES DE PRODUTOS PARA SAÚDE                                                                                                     0N9999999900009999999900000000000000000000000000000000000007      9999202510
0102010617ENVIO DE RELATÓRIOS DE INSPEÇÃO DE ESTABELECIMENTOS FABRICANTES DE MEDICAMENTOS À ANVISA                                                                                                                                                                  0N9999999900009999999900000000000000000000000000000000000007      9999202510
0102010625ENVIO DE RELATÓRIOS DE INSPEÇÃO DE ESTABELECIMENTOS FABRICANTES DE INSUMOS FARMACÊUTICOS À ANVISA                                                                                                                                                         0N9999999900009999999900000000000000000000000000000000000007      9999202510
0102010633ENVIO DE RELATÓRIOS DE INSPEÇÃO DE ESTABELECIMENTOS FABRICANTES DE PRODUTOS PARA SAÚDE À ANVISA                                                                                                                                                           0N9999999900009999999900000000000000000000000000000000000007      9999202510
0102010641AUDITORIAS INTERNAS REALIZADAS NO DEPARTAMENTO RESPONSÁVEL PELAS ATIVIDADES DE INSPEÇÃO DE ESTABELECIMENTOS FABRICANTES DE MEDICAMENTOS                                                                                                                   0N9999999900009999999900000000000000000000000000000000000007      9999202510
0102010650AUDITORIAS INTERNAS REALIZADAS NO DEPARTAMENTO RESPONSÁVEL PELAS ATIVIDADES DE INSPEÇÃO DE ESTABELECIMENTOS FABRICANTES DE INSUMOS FARMACÊUTICOS                                                                                                          0N9999999900009999999900000000000000000000000000000000000007      9999202510
0102010668AUDITORIAS INTERNAS REALIZADAS NO DEPARTAMENTO RESPONSÁVEL PELAS ATIVIDADES DE INSPEÇÃO DE ESTABELECIMENTOS FABRICANTES DE PRODUTOS PARA SAÚDE                                                                                                            0N9999999900009999999900000000000000000000000000000000000007      9999202510
0102020019VIGILÂNCIA DA SITUAÇÃO DE SAÚDE DOS TRABALHADORES                                                                                                                                                                                                         2N9999999900009999999900000000000000000000000000000000000005      9999202510
0102020027ATIVIDADE DE EDUCAÇÃO EM SAÚDE DO TRABALHADOR                                                                                                                                                                                                             2I9999999900000168157100000000000000000000000000000000000005      9999202510
0102020035INSPEÇÃO SANITÁRIA EM SAÚDE DO TRABALHADOR                                                                                                                                                                                                                2N9999999900009999999900000000000000000000000000000000000005      9999202510
0102020043INSPEÇÃO SANITÁRIA EM SAÚDE DO TRABALHADOR PARA AVALIAÇÃO DE CUMPRIMENTO DE RECOMENDAÇÕES                                                                                                                                                                 2N9999999900009999999900000000000000000000000000000000000005      9999202510
0102020051BUSCA ATIVA DE CASOS SUSPEITOS DE DOENÇAS OU AGRAVOS RELACIONADOS AO TRABALHO                                                                                                                                                                             2I0001999900000060157100000000000000000000000000000000000005      9999202510
0102020060APOIO INSTITUCIONAL DE VIGILÂNCIA EM SAÚDE DO TRABALHADOR (VISAT) PARA A REDE DE ATENÇÃO À SAÚDE                                                                                                                                                          2N9999999900009999999900000000000000000000000000000000000005      9999202510
0102020078ATIVIDADES COM GRUPOS NA TEMÁTICA DE SAÚDE DO TRABALHADOR                                                                                                                                                                                                 2N9999999900009999999900000000000000000000000000000000000005      9999202510
0102020086INSPEÇÃO SANITÁRIA EM SAÚDE DO TRABALHADOR PARA MAPEAMENTO DE RISCOS OCUPACIONAIS                                                                                                                                                                         2N9999999900009999999900000000000000000000000000000000000005      9999202510
0102020094INSPEÇÃO SANITÁRIA EM SAÚDE DO TRABALHADOR PARA INVESTIGAÇÃO DE ACIDENTE DE TRABALHO                                                                                                                                                                      2N9999999900009999999900000000000000000000000000000000000005      9999202510
0102020108INSPEÇÃO SANITÁRIA EM SAÚDE DO TRABALHADOR PARA SUBSIDIAR ESTABELECIMENTO DA RELAÇÃO ENTRE DOENÇAS E AGRAVOS COM O TRABALHO                                                                                                                               2N9999999900009999999900000000000000000000000000000000000005      9999202510
0102020116INSPEÇÃO SANITÁRIA EM SAÚDE DO TRABALHADOR PARA INVESTIGAÇÃO DE SURTOS/EVENTOS INUSITADOS RELACIONADOS AO TRABALHO                                                                                                                                        2N9999999900009999999900000000000000000000000000000000000005      9999202510
0102020124AÇÕES DE ARTICULAÇÃO COM CONTROLE SOCIAL E REPRESENTANTES DE TRABALHADORES                                                                                                                                                                                2N9999999900009999999900000000000000000000000000000000000005      9999202510
0102020132AÇÕES INTER E INTRASSETORIAIS DE SAÚDE DO TRABALHADOR                                                                                                                                                                                                     2N9999999900009999999900000000000000000000000000000000000005      9999202510
0102020140VIGILÂNCIA EM SAÚDE DO TRABALHADOR NAS EMERGÊNCIAS EM SAÚDE PÚBLICA                                                                                                                                                                                       2N9999999900009999999900000000000000000000000000000000000005      9999202510
0201010011AMNIOCENTESE                                                                                                                                                                                                                                              2I0001999900000108073100000000022000000000022000000000000006      9999202510
0201010020BIOPSIA / PUNCAO DE TUMOR SUPERFICIAL DA PELE                                                                                                                                                                                                             2I9999999900000000157100000000000000000000141000000000000006      9999202510
0201010038BIOPSIA CIRURGICA DE TIREOIDE                                                                                                                                                                                                                             2I0001000200880000157100000001237000000000000000000000768606      9999202510
0201010046BIOPSIA DE ANUS E CANAL ANAL                                                                                                                                                                                                                              2I0001999900000000157100000000184600000000184600000000000006      9999202510
0201010054BIOPSIA DE BACO POR PUNCAO / ASPIRACAO                                                                                                                                                                                                                    2I9999999900000000157100000000000000000000000000000000000006      9999202510
0201010062BIOPSIA DE BEXIGA                                                                                                                                                                                                                                         2I0001999900000000157100000000416800000000416800000000000006      9999202510
0201010070BIOPSIA DE BOLSA ESCROTAL                                                                                                                                                                                                                                 2I0001999900000000157100000000183300000000183300000000000006      9999202510
0201010089BIOPSIA DE CONDUTO AUDITIVO EXTERNO                                                                                                                                                                                                                       2I0002999900000000157100000000000000000000190600000000000006      9999202510
0201010097BIOPSIA DE CONJUNTIVA                                                                                                                                                                                                                                     2I0002999900000000157100000000311000000000311000000000000006      9999202510
0201010100BIOPSIA DE CORDAO ESPERMATICO (UNILATERAL)                                                                                                                                                                                                                2I0002999900000000157100000000461900000000461900000000000006      9999202510
0201010119BIOPSIA DE CORNEA                                                                                                                                                                                                                                         2I0002999900000000157100000000686200000000686200000000000006      9999202510
0201010127BIOPSIA DE CORPO VERTEBRAL A CEU ABERTO                                                                                                                                                                                                                   3I0001000200880000157100000005856600000000000000000002268006      9999202510
0201010135BIOPSIA DE CORPO VERTEBRAL LAMINA E PEDICULO VERTEBRAL (POR DISPOSITIVO GUIADO)                                                                                                                                                                           3I0001000200880000157100000001490100000000000000000001296006      9999202510
0201010143BIOPSIA DE ENDOCARDIO / MIOCARDIO                                                                                                                                                                                                                         3I0001000100880000157100000005772800000000000000000001319806      9999202510
0201010151BIOPSIA DE ENDOMETRIO                                                                                                                                                                                                                                     2I0001999900000108157100000000000000000000183300000000000006      9999202510
0201010160BIOPSIA DE ENDOMETRIO POR ASPIRACAO MANUAL INTRA-UTERINA                                                                                                                                                                                                  2I0001000100480108157100000000681500000000856900000000175406      9999202510
0201010178BIOPSIA DE EPIDIDIMO                                                                                                                                                                                                                                      2I0002999900000120157100000000461900000000461900000000000006      9999202510
0201010186BIOPSIA DE ESCLERA                                                                                                                                                                                                                                        2I0002999900000000157100000000487300000000686200000000198906      9999202510
0201010194BIOPSIA DE FARINGE/LARINGE                                                                                                                                                                                                                                2I0001999900000000157100000000190600000000190600000000000006      9999202510
0201010208BIOPSIA DE FIGADO EM CUNHA / FRAGMENTO                                                                                                                                                                                                                    2I0001000200880000157100000001142900000000000000000000833006      9999202510
0201010216BIOPSIA DE FIGADO POR PUNCAO                                                                                                                                                                                                                              2I0001999900000000157100000000711500000000711500000000000006      9999202510
0201010224BIOPSIA DE GANGLIO LINFATICO                                                                                                                                                                                                                              2I0002999900000000157100000000461900000000461900000000000006      9999202510
0201010232BIÓPSIA DE GLÂNDULA SALIVAR                                                                                                                                                                                                                               2I0002999900000000157100000000312700000000312700000000000006      9999202510
0201010240BIOPSIA DE IRIS, CORPO CILIAR, RETINA, COROIDE, VITREO E TUMOR INTRA OCULAR                                                                                                                                                                               2I0002000101800000157100000001158600000001992100000000833506      9999202510
0201010259BIOPSIA DE LAMINA PEDICULO E PROCESSOS VERTEBRAIS (A CEU ABERTO)                                                                                                                                                                                          3I0001000200880216157100000001724600000000000000000001150206      9999202510
0201010267BIOPSIA DE LESAO DE PARTES MOLES (POR AGULHA / CEU ABERTO)                                                                                                                                                                                                2I0001000100670000157100000000655000000001143600000000488606      9999202510
0201010275BIOPSIA DE MEDULA OSSEA                                                                                                                                                                                                                                   2I0001000100400000157100000001877200000002000000000000122806      9999202510
0201010283BIOPSIA DE MUSCULO (A CEU ABERTO)                                                                                                                                                                                                                         2I0001999900000000157100000000183300000000183300000000000006      9999202510
0201010291BIOPSIA DE NERVO                                                                                                                                                                                                                                          2I9999999900000000157100000000000000000000300600000000000006      9999202510
0201010305BIOPSIA DE OSSO / CARTILAGEM DA CINTURA ESCAPULAR (POR AGULHA / CEU ABERTO)                                                                                                                                                                               2I0002000200880000157100000001196000000001827500000000631506      9999202510
0201010313BIOPSIA DE OSSO / CARTILAGEM DA CINTURA PELVICA (POR AGULHA / CEU ABERTO)                                                                                                                                                                                 2I0002000200880000157100000001199900000001833900000000634006      9999202510
0201010321BIOPSIA DE OSSO / CARTILAGEM DE MEMBRO INFERIOR (POR AGULHA / CEU ABERTO)                                                                                                                                                                                 2I0002000100880000157100000001220000000001887800000000667806      9999202510
0201010330BIOPSIA DE OSSO / CARTILAGEM DE MEMBRO SUPERIOR (POR AGULHA / CEU ABERTO)                                                                                                                                                                                 2I0002000100880000157100000001254100000001882600000000628506      9999202510
0201010348BIÓPSIA DE OSSO DO CRÂNIO E DA FACE                                                                                                                                                                                                                       2I9999999900000000157100000000000000000000239900000000000006      9999202510
0201010356BIOPSIA DE PALPEBRA                                                                                                                                                                                                                                       2I9999999900000000157100000000000000000000183300000000000006      9999202510
0201010364BIOPSIA DE PAVILHAO AURICULAR                                                                                                                                                                                                                             2I0002999900000000157100000000000000000000146600000000000006      9999202510
0201010372BIOPSIA DE PELE E PARTES MOLES                                                                                                                                                                                                                            2I0001999900000000157100000000258300000000258300000000000006      9999202510
0201010380BIOPSIA DE PENIS                                                                                                                                                                                                                                          2I0001999900000000157100000000183300000000183300000000000006      9999202510
0201010399BIOPSIA DE PIRAMIDE NASAL                                                                                                                                                                                                                                 2I9999999900000000157100000000000000000000183300000000000006      9999202510
0201010402BIOPSIA DE PLEURA (POR ASPIRAÇÃO/AGULHA / PLEUROSCOPIA)                                                                                                                                                                                                   2I0002000100480000157100000000904200000001136800000000232606      9999202510
0201010410BIÓPSIA DE PRÓSTATA                                                                                                                                                                                                                                       2I0001999900000120157100000002028100000002028100000000000006      9999202510
0201010429BIOPSIA DE PULMAO POR ASPIRACAO                                                                                                                                                                                                                           2I9999999900000000157100000000000000000000000000000000000006      9999202510
0201010437BIOPSIA DE RIM POR PUNCAO                                                                                                                                                                                                                                 2I0001999900000000157100000000461900000000461900000000000006      9999202510
0201010445BIOPSIA DE SEIO PARANASAL                                                                                                                                                                                                                                 2I0001999900000000157100000000000000000000183300000000000006      9999202510
0201010453BIOPSIA DE SINÓVIA                                                                                                                                                                                                                                        2I0001999900000000157100000000000000000000300600000000000006      9999202510
0201010461BIOPSIA DE TESTICULO                                                                                                                                                                                                                                      2I0002999900000120157100000000000000000000461900000000000006      9999202510
0201010470BIOPSIA DE TIREOIDE OU PARATIREOIDE - PAAF                                                                                                                                                                                                                2I9999999900000000157100000000000000000000237300000000000006      9999202510
0201010488BIOPSIA DE URETER                                                                                                                                                                                                                                         2I0001999900000000157100000000461900000000461900000000000006      9999202510
0201010496BIOPSIA DE URETRA                                                                                                                                                                                                                                         2I0001999900000000157100000000461900000000461900000000000006      9999202510
0201010500BIOPSIA/PUNÇÃO DE VAGINA                                                                                                                                                                                                                                  2I0001999900000000157100000000183300000000183300000000000006      9999202510
0201010518BIOPSIA/PUNÇÃO DE VULVA                                                                                                                                                                                                                                   2I0001999900000000157100000000183300000000183300000000000006      9999202510
0201010526BIÓPSIA DOS TECIDOS MOLES DA BOCA                                                                                                                                                                                                                         2I0001999900000000157100000000215600000000215600000000000006      9999202510
0201010534BIOPSIA ESTEREOTAXICA                                                                                                                                                                                                                                     3I0001000214840156157100000010742100000000000000000006703206      9999202510
0201010542BIOPSIA PERCUTÂNEA ORIENTADA POR TOMOGRAFIA COMPUTADORIZADA / ULTRASSONOGRAFIA / RESSONÂNCIA MAGNÉTICA / RAIO X                                                                                                                                           3I0001999900000000157100000000970000000000970000000000000006      9999202510
0201010550BIOPSIA PRÉ-ESCALÊNICA                                                                                                                                                                                                                                    2I0001000200880000157100000001015600000000000000000000766706      9999202510
0201010569BIOPSIA/EXERESE DE NÓDULO DE MAMA                                                                                                                                                                                                                         2I0002999900000192157100000000700000000000700000000000000006      9999202510
0201010585PUNÇÃO ASPIRATIVA DE MAMA POR AGULHA FINA                                                                                                                                                                                                                 2I0002999900000192157100000000000000000000664800000000000006      9999202510
0201010593PUNÇÃO DE CISTERNA SUB-OCCIPITAL                                                                                                                                                                                                                          2I9999999900000000157100000000000000000000070400000000000006      9999202510
0201010607PUNÇÃO DE MAMA POR AGULHA GROSSA                                                                                                                                                                                                                          2I0002999900000192157100000000000000000001400000000000000006      9999202510
0201010615PUNÇÃO DE VAGINA                                                                                                                                                                                                                                          2I0001999900000000157100000000141000000000141000000000000006      9999202510
0201010623PUNÇÃO EXPLORADORA DO DEFERENTE                                                                                                                                                                                                                           2I0002999900000000157100000000141000000000141000000000000006      9999202510
0201010631PUNÇÃO LOMBAR                                                                                                                                                                                                                                             2I9999999900000000157100000000000000000000070400000000000006      9999202510
0201010640PUNÇÃO P/ ESVAZIAMENTO                                                                                                                                                                                                                                    2I9999999900000000157100000000000000000000132500000000000006      9999202510
0201010658PUNÇÃO VENTRICULAR TRANSFONTANELA                                                                                                                                                                                                                         2I0004999900000000005900000000000000000000070400000000000006      9999202510
0201010666BIOPSIA DO COLO UTERINO                                                                                                                                                                                                                                   2I0001999900000144157100000000183300000000183300000000000006      9999202510
0201020017COLETA DE LAVADO BRONCO-ALVEOLAR                                                                                                                                                                                                                          2I0001999900000000157100000000000000000000028000000000000006      9999202510
0201020025COLETA DE LINFA PARA PESQUISA DE M. LEPRAE                                                                                                                                                                                                                1I9999999900000000157100000000000000000000000000000000000001      9999202510
0201020033COLETA DE MATERIAL DO COLO DE ÚTERO PARA EXAME CITOPATOLÓGICO                                                                                                                                                                                             1I9999999900000120157100000000000000000000000000000000000001      9999202510
0201020041COLETA DE MATERIAL PARA EXAME LABORATORIAL                                                                                                                                                                                                                1I9999999900000000157100000000000000000000000000000000000001      9999202510
0201020050COLETA DE SANGUE PARA TRIAGEM NEONATAL                                                                                                                                                                                                                    1I9999999900000000001100000000000000000000000000000000000001      9999202510
0201020068TIPIFICAÇÃO DO ALELO HLA-B                                                                                                                                                                                                                                2I0001999900000000157100000000000000000000000000000000000007      9999202510
0201020076COLETA DE MATERIAL DO COLO DO ÚTERO PARA EXAME MOLECULAR DE DETECÇÂO DE HPV                                                                                                                                                                               1I0001999900000300077900000000000000000000000000000000000001      9999202510
0201020084ENTREGA DE MATERIAL OBTIDO POR AUTO COLETA PARA EXAME MOLECULAR PARA DETECÇÃO DE HPV, NO COLO DO ÚTERO.                                                                                                                                                   1I0001999900000300077900000000000000000000000000000000000001      9999202510
0202010015CLEARANCE OSMOLAR                                                                                                                                                                                                                                         2I9999999900000000157100000000000000000000035100000000000006      9999202510
0202010023DETERMINACAO DE CAPACIDADE DE FIXACAO DO FERRO                                                                                                                                                                                                            2I9999999900000000157100000000000000000000020100000000000006      9999202510
0202010031DETERMINACAO DE CROMATOGRAFIA DE AMINOACIDOS                                                                                                                                                                                                              2I9999999900000000157100000000000000000000156500000000000006      9999202510
0202010040DETERMINACAO DE CURVA GLICEMICA (2 DOSAGENS)                                                                                                                                                                                                              2I9999999900000000157100000000000000000000036300000000000006      9999202510
0202010058DETERMINAÇÃO DE CURVA GLICÊMICA C/ INDUÇÃO POR CORTISONA ( 5 DOSAGENS)                                                                                                                                                                                    2I9999999900000000157100000000000000000000065500000000000006      9999202510
0202010066DETERMINAÇÃO DE CURVA GLICÊMICA C/ INDUÇÃO POR CORTISONA (4 DOSAGENS)                                                                                                                                                                                     2I9999999900000000157100000000000000000000036800000000000006      9999202510
0202010074DETERMINACAO DE CURVA GLICEMICA CLASSICA (5 DOSAGENS)                                                                                                                                                                                                     2I9999999900000000157100000000000000000000100000000000000006      9999202510
0202010082DETERMINAÇÃO DE OSMOLARIDADE                                                                                                                                                                                                                              2I9999999900000000157100000000000000000000035100000000000006      9999202510
0202010090DOSAGEM DE 5-NUCLEOTIDASE                                                                                                                                                                                                                                 2I9999999900000000157100000000000000000000035100000000000006      9999202510
0202010104DOSAGEM DE ACETONA                                                                                                                                                                                                                                        2I9999999900000000157100000000000000000000018500000000000006      9999202510
0202010112DOSAGEM DE ACIDO ASCORBICO                                                                                                                                                                                                                                2I9999999900000000157100000000000000000000020100000000000006      9999202510
0202010120DOSAGEM DE ACIDO URICO                                                                                                                                                                                                                                    2I9999999900000000157100000000000000000000018500000000000006      9999202510
0202010139DOSAGEM DE ACIDO VANILMANDELICO                                                                                                                                                                                                                           2I9999999900000000157100000000000000000000090000000000000006      9999202510
0202010147DOSAGEM DE ALDOLASE                                                                                                                                                                                                                                       2I9999999900000000157100000000000000000000036800000000000006      9999202510
0202010155DOSAGEM DE ALFA-1-ANTITRIPSINA                                                                                                                                                                                                                            2I9999999900000000157100000000000000000000036800000000000006      9999202510
0202010163DOSAGEM DE ALFA-1-GLICOPROTEINA ACIDA                                                                                                                                                                                                                     2I9999999900000000157100000000000000000000036800000000000006      9999202510
0202010171DOSAGEM DE ALFA-2-MACROGLOBULINA                                                                                                                                                                                                                          2I9999999900000000157100000000000000000000036800000000000006      9999202510
0202010180DOSAGEM DE AMILASE                                                                                                                                                                                                                                        2I9999999900000000157100000000000000000000022500000000000006      9999202510
0202010198DOSAGEM DE AMONIA                                                                                                                                                                                                                                         2I9999999900000000157100000000000000000000035100000000000006      9999202510
0202010201DOSAGEM DE BILIRRUBINA TOTAL E FRACOES                                                                                                                                                                                                                    2I9999999900000000157100000000000000000000020100000000000006      9999202510
0202010210DOSAGEM DE CALCIO                                                                                                                                                                                                                                         2I9999999900000000157100000000000000000000018500000000000006      9999202510
0202010228DOSAGEM DE CALCIO IONIZAVEL                                                                                                                                                                                                                               2I9999999900000000157100000000000000000000035100000000000006      9999202510
0202010236DOSAGEM DE CAROTENO                                                                                                                                                                                                                                       2I9999999900000000157100000000000000000000020100000000000006      9999202510
0202010244DOSAGEM DE CATECOLAMINAS                                                                                                                                                                                                                                  2I9999999900000000157100000000000000000000000000000000000006      9999202510
0202010252DOSAGEM DE CERULOPLASMINA                                                                                                                                                                                                                                 2I9999999900000000157100000000000000000000036800000000000006      9999202510
0202010260DOSAGEM DE CLORETO                                                                                                                                                                                                                                        2I9999999900000000157100000000000000000000018500000000000006      9999202510
0202010279DOSAGEM DE COLESTEROL HDL                                                                                                                                                                                                                                 2I9999999900000000157100000000000000000000035100000000000006      9999202510
0202010287DOSAGEM DE COLESTEROL LDL                                                                                                                                                                                                                                 2I9999999900000000157100000000000000000000035100000000000006      9999202510
0202010295DOSAGEM DE COLESTEROL TOTAL                                                                                                                                                                                                                               2I9999999900000000157100000000000000000000018500000000000006      9999202510
0202010309DOSAGEM DE COLINESTERASE                                                                                                                                                                                                                                  2I9999999900000000157100000000000000000000036800000000000006      9999202510
0202010317DOSAGEM DE CREATININA                                                                                                                                                                                                                                     2I9999999900000000157100000000000000000000018500000000000006      9999202510
0202010325DOSAGEM DE CREATINOFOSFOQUINASE (CPK)                                                                                                                                                                                                                     2I9999999900000000157100000000000000000000036800000000000006      9999202510
0202010333DOSAGEM DE CREATINOFOSFOQUINASE FRACAO MB                                                                                                                                                                                                                 2I9999999900000000157100000000000000000000041200000000000006      9999202510
0202010341DOSAGEM DE DESIDROGENASE ALFA-HIDROXIBUTIRICA                                                                                                                                                                                                             2I9999999900000000157100000000000000000000035100000000000006      9999202510
0202010350DOSAGEM DE DESIDROGENASE GLUTAMICA                                                                                                                                                                                                                        2I9999999900000000157100000000000000000000035100000000000006      9999202510
0202010368DOSAGEM DE DESIDROGENASE LATICA                                                                                                                                                                                                                           2I9999999900000000157100000000000000000000036800000000000006      9999202510
0202010376DOSAGEM DE DESIDROGENASE LATICA (ISOENZIMAS FRACIONADAS)                                                                                                                                                                                                  2I9999999900000000157100000000000000000000036800000000000006      9999202510
0202010384DOSAGEM DE FERRITINA                                                                                                                                                                                                                                      2I9999999900000000157100000000000000000000155900000000000006      9999202510
0202010392DOSAGEM DE FERRO SERICO                                                                                                                                                                                                                                   2I9999999900000000157100000000000000000000035100000000000006      9999202510
0202010406DOSAGEM DE FOLATO                                                                                                                                                                                                                                         2I9999999900000000157100000000000000000000156500000000000006      9999202510
0202010414DOSAGEM DE FOSFATASE ACIDA TOTAL                                                                                                                                                                                                                          2I9999999900000000157100000000000000000000020100000000000006      9999202510
0202010422DOSAGEM DE FOSFATASE ALCALINA                                                                                                                                                                                                                             2I9999999900000000157100000000000000000000020100000000000006      9999202510
0202010430DOSAGEM DE FOSFORO                                                                                                                                                                                                                                        2I9999999900000000157100000000000000000000018500000000000006      9999202510
0202010449DOSAGEM DE FRACAO PROSTATICA DA FOSFATASE ACIDA                                                                                                                                                                                                           2I9999999900000000157100000000000000000000020100000000000006      9999202510
0202010457DOSAGEM DE GALACTOSE                                                                                                                                                                                                                                      2I9999999900000000157100000000000000000000035100000000000006      9999202510
0202010465DOSAGEM DE GAMA-GLUTAMIL-TRANSFERASE (GAMA GT)                                                                                                                                                                                                            2I9999999900000000157100000000000000000000035100000000000006      9999202510
0202010473DOSAGEM DE GLICOSE                                                                                                                                                                                                                                        2I9999999900000000157100000000000000000000018500000000000006      9999202510
0202010481DOSAGEM DE GLICOSE-6-FOSFATO DESIDROGENASE                                                                                                                                                                                                                2I9999999900000000157100000000000000000000036800000000000006      9999202510
0202010490DOSAGEM DE HAPTOGLOBINA                                                                                                                                                                                                                                   2I9999999900000000157100000000000000000000036800000000000006      9999202510
0202010503DOSAGEM DE HEMOGLOBINA GLICOSILADA                                                                                                                                                                                                                        2I9999999900000000157100000000000000000000078600000000000006      9999202510
0202010511DOSAGEM DE HIDROXIPROLINA                                                                                                                                                                                                                                 2I9999999900000000157100000000000000000000036800000000000006      9999202510
0202010520DOSAGEM DE ISOMERASE-FOSFOHEXOSE                                                                                                                                                                                                                          2I9999999900000000157100000000000000000000035100000000000006      9999202510
0202010538DOSAGEM DE LACTATO                                                                                                                                                                                                                                        2I9999999900000000157100000000000000000000036800000000000006      9999202510
0202010546DOSAGEM DE LEUCINO-AMINOPEPTIDASE                                                                                                                                                                                                                         2I9999999900000000157100000000000000000000035100000000000006      9999202510
0202010554DOSAGEM DE LIPASE                                                                                                                                                                                                                                         2I9999999900000000157100000000000000000000022500000000000006      9999202510
0202010562DOSAGEM DE MAGNESIO                                                                                                                                                                                                                                       2I9999999900000000157100000000000000000000020100000000000006      9999202510
0202010570DOSAGEM DE MUCO-PROTEINAS                                                                                                                                                                                                                                 2I9999999900000000157100000000000000000000020100000000000006      9999202510
0202010589DOSAGEM DE PIRUVATO                                                                                                                                                                                                                                       2I9999999900000000157100000000000000000000036800000000000006      9999202510
0202010597DOSAGEM DE PORFIRINAS                                                                                                                                                                                                                                     2I9999999900000000157100000000000000000000035100000000000006      9999202510
0202010600DOSAGEM DE POTASSIO                                                                                                                                                                                                                                       2I9999999900000000157100000000000000000000018500000000000006      9999202510
0202010619DOSAGEM DE PROTEINAS TOTAIS                                                                                                                                                                                                                               2I9999999900000000157100000000000000000000014000000000000006      9999202510
0202010627DOSAGEM DE PROTEINAS TOTAIS E FRACOES                                                                                                                                                                                                                     2I9999999900000000157100000000000000000000018500000000000006      9999202510
0202010635DOSAGEM DE SODIO                                                                                                                                                                                                                                          2I9999999900000000157100000000000000000000018500000000000006      9999202510
0202010643DOSAGEM DE TRANSAMINASE GLUTAMICO-OXALACETICA (TGO)                                                                                                                                                                                                       2I9999999900000000157100000000000000000000020100000000000006      9999202510
0202010651DOSAGEM DE TRANSAMINASE GLUTAMICO-PIRUVICA (TGP)                                                                                                                                                                                                          2I9999999900000000157100000000000000000000020100000000000006      9999202510
0202010660DOSAGEM DE TRANSFERRINA                                                                                                                                                                                                                                   2I9999999900000000157100000000000000000000041200000000000006      9999202510
0202010678DOSAGEM DE TRIGLICERIDEOS                                                                                                                                                                                                                                 2I9999999900000000157100000000000000000000035100000000000006      9999202510
0202010686DOSAGEM DE TRIPTOFANO                                                                                                                                                                                                                                     2I9999999900000000157100000000000000000000035100000000000006      9999202510
0202010694DOSAGEM DE UREIA                                                                                                                                                                                                                                          2I9999999900000000157100000000000000000000018500000000000006      9999202510
0202010708DOSAGEM DE VITAMINA B12                                                                                                                                                                                                                                   2I9999999900000000157100000000000000000000152400000000000006      9999202510
0202010716ELETROFORESE DE LIPOPROTEINAS                                                                                                                                                                                                                             2I9999999900000000157100000000000000000000036800000000000006      9999202510
0202010724ELETROFORESE DE PROTEINAS                                                                                                                                                                                                                                 2I9999999900000000157100000000000000000000044200000000000006      9999202510
0202010732GASOMETRIA (PH PCO2 PO2 BICARBONATO AS2 (EXCESSO OU DEFICIT BASE )                                                                                                                                                                                        2I9999999900000000157100000000000000000000156500000000000006      9999202510
0202010740PROVA DA D-XILOSE                                                                                                                                                                                                                                         2I9999999900000000157100000000000000000000036800000000000006      9999202510
0202010759TESTE DE TOLERÂNCIA A INSULINA / HIPOGLICEMIANTES ORAIS                                                                                                                                                                                                   2I9999999900000000157100000000000000000000065500000000000006      9999202510
0202010767DOSAGEM DE 25 HIDROXIVITAMINA D                                                                                                                                                                                                                           2I9999999900000000157100000000000000000000152400000000000006      9999202510
0202010775DETERMINAÇÃO DE CREMATÓCRITO NO LEITE HUMANO ORDENHADO                                                                                                                                                                                                    2N9999999900009999999900000000000000000000015300000000000006      9999202510
0202010783ACIDEZ TITULÁVEL NO LEITE HUMANO (DORNIC)                                                                                                                                                                                                                 2N9999999900009999999900000000000000000000030400000000000006      9999202510
0202010791DOSAGEM DE PEPTÍDEOS NATRIURÉTICOS TIPO B (BNP E NT-PROBNP)                                                                                                                                                                                               2I9999999900000216157100000000000000000000270000000000000006      9999202510
0202020010CITOQUIMICA HEMATOLOGICA                                                                                                                                                                                                                                  2I9999999900000000157100000000000000000000064800000000000006      9999202510
0202020029CONTAGEM DE PLAQUETAS                                                                                                                                                                                                                                     2I9999999900000000157100000000000000000000027300000000000006      9999202510
0202020037CONTAGEM DE RETICULOCITOS                                                                                                                                                                                                                                 2I9999999900000000157100000000000000000000027300000000000006      9999202510
0202020045DETERMINAÇÃO DE CURVA DE RESISTÊNCIA GLOBULAR                                                                                                                                                                                                             2I9999999900000000157100000000000000000000027300000000000006      9999202510
0202020053DETERMINAÇÃO DE ENZIMAS ERITROCITÁRIAS (CADA)                                                                                                                                                                                                             2I9999999900000000157100000000000000000000027300000000000006      9999202510
0202020061DETERMINAÇÃO DE SULFO-HEMOGLOBINA                                                                                                                                                                                                                         2I9999999900000000157100000000000000000000027300000000000006      9999202510
0202020070DETERMINAÇÃO DE TEMPO DE COAGULAÇÃO                                                                                                                                                                                                                       2I9999999900000000157100000000000000000000027300000000000006      9999202510
0202020088DETERMINAÇÃO DE TEMPO DE LISE DA EUGLOBULINA                                                                                                                                                                                                              2I9999999900000000157100000000000000000000027300000000000006      9999202510
